{
  "contractName": "DevToken",
  "abi": [
    {
      "inputs": [
        {
          "internalType": "uint256",
          "name": "_stakeStartDate",
          "type": "uint256"
        }
      ],
      "stateMutability": "nonpayable",
      "type": "constructor"
    },
    {
      "anonymous": false,
      "inputs": [
        {
          "indexed": true,
          "internalType": "address",
          "name": "owner",
          "type": "address"
        },
        {
          "indexed": true,
          "internalType": "address",
          "name": "spender",
          "type": "address"
        },
        {
          "indexed": false,
          "internalType": "uint256",
          "name": "value",
          "type": "uint256"
        }
      ],
      "name": "Approval",
      "type": "event"
    },
    {
      "anonymous": false,
      "inputs": [
        {
          "indexed": false,
          "internalType": "uint256",
          "name": "startDate",
          "type": "uint256"
        }
      ],
      "name": "CalculatedReward",
      "type": "event"
    },
    {
      "anonymous": false,
      "inputs": [
        {
          "indexed": false,
          "internalType": "uint256",
          "name": "startDate",
          "type": "uint256"
        },
        {
          "indexed": false,
          "internalType": "uint256",
          "name": "endDate",
          "type": "uint256"
        }
      ],
      "name": "CalculatedReward1",
      "type": "event"
    },
    {
      "anonymous": false,
      "inputs": [
        {
          "indexed": false,
          "internalType": "uint256",
          "name": "startDate",
          "type": "uint256"
        },
        {
          "indexed": false,
          "internalType": "uint256",
          "name": "endDate",
          "type": "uint256"
        },
        {
          "indexed": false,
          "internalType": "uint256",
          "name": "daysStaked",
          "type": "uint256"
        }
      ],
      "name": "CalculatedReward2",
      "type": "event"
    },
    {
      "anonymous": false,
      "inputs": [
        {
          "indexed": false,
          "internalType": "uint256",
          "name": "startDate",
          "type": "uint256"
        },
        {
          "indexed": false,
          "internalType": "uint256",
          "name": "endDate",
          "type": "uint256"
        },
        {
          "indexed": false,
          "internalType": "uint256",
          "name": "daysStaked",
          "type": "uint256"
        },
        {
          "indexed": false,
          "internalType": "uint256",
          "name": "reward",
          "type": "uint256"
        }
      ],
      "name": "CalculatedReward3",
      "type": "event"
    },
    {
      "anonymous": false,
      "inputs": [
        {
          "indexed": true,
          "internalType": "address",
          "name": "previousOwner",
          "type": "address"
        },
        {
          "indexed": true,
          "internalType": "address",
          "name": "newOwner",
          "type": "address"
        }
      ],
      "name": "OwnershipTransferred",
      "type": "event"
    },
    {
      "anonymous": false,
      "inputs": [
        {
          "indexed": true,
          "internalType": "address",
          "name": "user",
          "type": "address"
        },
        {
          "indexed": false,
          "internalType": "uint256",
          "name": "amount",
          "type": "uint256"
        },
        {
          "indexed": false,
          "internalType": "uint256",
          "name": "index",
          "type": "uint256"
        },
        {
          "indexed": false,
          "internalType": "uint256",
          "name": "timestamp",
          "type": "uint256"
        }
      ],
      "name": "Staked",
      "type": "event"
    },
    {
      "anonymous": false,
      "inputs": [
        {
          "indexed": true,
          "internalType": "address",
          "name": "from",
          "type": "address"
        },
        {
          "indexed": true,
          "internalType": "address",
          "name": "to",
          "type": "address"
        },
        {
          "indexed": false,
          "internalType": "uint256",
          "name": "value",
          "type": "uint256"
        }
      ],
      "name": "Transfer",
      "type": "event"
    },
    {
      "inputs": [
        {
          "internalType": "address",
          "name": "owner",
          "type": "address"
        },
        {
          "internalType": "address",
          "name": "spender",
          "type": "address"
        }
      ],
      "name": "allowance",
      "outputs": [
        {
          "internalType": "uint256",
          "name": "",
          "type": "uint256"
        }
      ],
      "stateMutability": "view",
      "type": "function"
    },
    {
      "inputs": [
        {
          "internalType": "address",
          "name": "spender",
          "type": "address"
        },
        {
          "internalType": "uint256",
          "name": "amount",
          "type": "uint256"
        }
      ],
      "name": "approve",
      "outputs": [
        {
          "internalType": "bool",
          "name": "",
          "type": "bool"
        }
      ],
      "stateMutability": "nonpayable",
      "type": "function"
    },
    {
      "inputs": [
        {
          "internalType": "address",
          "name": "account",
          "type": "address"
        }
      ],
      "name": "balanceOf",
      "outputs": [
        {
          "internalType": "uint256",
          "name": "",
          "type": "uint256"
        }
      ],
      "stateMutability": "view",
      "type": "function"
    },
    {
      "inputs": [],
      "name": "decimals",
      "outputs": [
        {
          "internalType": "uint8",
          "name": "",
          "type": "uint8"
        }
      ],
      "stateMutability": "view",
      "type": "function"
    },
    {
      "inputs": [
        {
          "internalType": "address",
          "name": "spender",
          "type": "address"
        },
        {
          "internalType": "uint256",
          "name": "subtractedValue",
          "type": "uint256"
        }
      ],
      "name": "decreaseAllowance",
      "outputs": [
        {
          "internalType": "bool",
          "name": "",
          "type": "bool"
        }
      ],
      "stateMutability": "nonpayable",
      "type": "function"
    },
    {
      "inputs": [
        {
          "internalType": "address",
          "name": "spender",
          "type": "address"
        },
        {
          "internalType": "uint256",
          "name": "addedValue",
          "type": "uint256"
        }
      ],
      "name": "increaseAllowance",
      "outputs": [
        {
          "internalType": "bool",
          "name": "",
          "type": "bool"
        }
      ],
      "stateMutability": "nonpayable",
      "type": "function"
    },
    {
      "inputs": [],
      "name": "initialSupply",
      "outputs": [
        {
          "internalType": "uint256",
          "name": "",
          "type": "uint256"
        }
      ],
      "stateMutability": "view",
      "type": "function"
    },
    {
      "inputs": [],
      "name": "name",
      "outputs": [
        {
          "internalType": "string",
          "name": "",
          "type": "string"
        }
      ],
      "stateMutability": "view",
      "type": "function"
    },
    {
      "inputs": [],
      "name": "owner",
      "outputs": [
        {
          "internalType": "address",
          "name": "",
          "type": "address"
        }
      ],
      "stateMutability": "view",
      "type": "function"
    },
    {
      "inputs": [],
      "name": "renounceOwnership",
      "outputs": [],
      "stateMutability": "nonpayable",
      "type": "function"
    },
    {
      "inputs": [],
      "name": "stakeStartDate",
      "outputs": [
        {
          "internalType": "uint256",
          "name": "",
          "type": "uint256"
        }
      ],
      "stateMutability": "view",
      "type": "function"
    },
    {
      "inputs": [],
      "name": "symbol",
      "outputs": [
        {
          "internalType": "string",
          "name": "",
          "type": "string"
        }
      ],
      "stateMutability": "view",
      "type": "function"
    },
    {
      "inputs": [],
      "name": "totalSupply",
      "outputs": [
        {
          "internalType": "uint256",
          "name": "",
          "type": "uint256"
        }
      ],
      "stateMutability": "view",
      "type": "function"
    },
    {
      "inputs": [
        {
          "internalType": "address",
          "name": "to",
          "type": "address"
        },
        {
          "internalType": "uint256",
          "name": "amount",
          "type": "uint256"
        }
      ],
      "name": "transfer",
      "outputs": [
        {
          "internalType": "bool",
          "name": "",
          "type": "bool"
        }
      ],
      "stateMutability": "nonpayable",
      "type": "function"
    },
    {
      "inputs": [
        {
          "internalType": "address",
          "name": "from",
          "type": "address"
        },
        {
          "internalType": "address",
          "name": "to",
          "type": "address"
        },
        {
          "internalType": "uint256",
          "name": "amount",
          "type": "uint256"
        }
      ],
      "name": "transferFrom",
      "outputs": [
        {
          "internalType": "bool",
          "name": "",
          "type": "bool"
        }
      ],
      "stateMutability": "nonpayable",
      "type": "function"
    },
    {
      "inputs": [
        {
          "internalType": "address",
          "name": "newOwner",
          "type": "address"
        }
      ],
      "name": "transferOwnership",
      "outputs": [],
      "stateMutability": "nonpayable",
      "type": "function"
    },
    {
      "inputs": [
        {
          "internalType": "uint256",
          "name": "_timestamp",
          "type": "uint256"
        }
      ],
      "name": "setStakeStartDate",
      "outputs": [],
      "stateMutability": "nonpayable",
      "type": "function"
    },
    {
      "inputs": [
        {
          "internalType": "uint256",
          "name": "_amount",
          "type": "uint256"
        }
      ],
      "name": "stake",
      "outputs": [],
      "stateMutability": "nonpayable",
      "type": "function"
    },
    {
      "inputs": [
        {
          "internalType": "address",
          "name": "_staker",
          "type": "address"
        }
      ],
      "name": "hasStake",
      "outputs": [
        {
          "components": [
            {
              "internalType": "uint256",
              "name": "total_amount",
              "type": "uint256"
            },
            {
              "components": [
                {
                  "internalType": "address",
                  "name": "user",
                  "type": "address"
                },
                {
                  "internalType": "uint256",
                  "name": "amount",
                  "type": "uint256"
                },
                {
                  "internalType": "uint256",
                  "name": "since",
                  "type": "uint256"
                },
                {
                  "internalType": "uint256",
                  "name": "claimable",
                  "type": "uint256"
                }
              ],
              "internalType": "struct DevToken.Stake[]",
              "name": "stakes",
              "type": "tuple[]"
            }
          ],
          "internalType": "struct DevToken.StakingSummary",
          "name": "",
          "type": "tuple"
        }
      ],
      "stateMutability": "view",
      "type": "function"
    },
    {
      "inputs": [],
      "name": "withdrawStakes",
      "outputs": [],
      "stateMutability": "nonpayable",
      "type": "function"
    }
  ],
  "bytecode": "0x60806040526305f5e1006006553480156200001957600080fd5b50604051620036b6380380620036b683398181016040528101906200003f9190620004c8565b6040518060400160405280600881526020017f446576546f6b656e0000000000000000000000000000000000000000000000008152506040518060400160405280600481526020017f4456544b000000000000000000000000000000000000000000000000000000008152508160039081620000bc91906200076a565b508060049081620000ce91906200076a565b505050620000f1620000e56200016560201b60201c565b6200016d60201b60201c565b6200012f33620001066200023360201b60201c565b600a620001149190620009e1565b60065462000123919062000a32565b6200023c60201b60201c565b6008600181600181540180825580915050039060005260206000209050506200015e81620003a960201b60201c565b5062000bdb565b600033905090565b6000600560009054906101000a900473ffffffffffffffffffffffffffffffffffffffff16905081600560006101000a81548173ffffffffffffffffffffffffffffffffffffffff021916908373ffffffffffffffffffffffffffffffffffffffff1602179055508173ffffffffffffffffffffffffffffffffffffffff168173ffffffffffffffffffffffffffffffffffffffff167f8be0079c531659141344cd1fd0a4f28419497f9722a3daafe3b4186f6b6457e060405160405180910390a35050565b60006012905090565b600073ffffffffffffffffffffffffffffffffffffffff168273ffffffffffffffffffffffffffffffffffffffff1603620002ae576040517f08c379a0000000000000000000000000000000000000000000000000000000008152600401620002a59062000ade565b60405180910390fd5b620002c260008383620003c360201b60201c565b8060026000828254620002d6919062000b00565b92505081905550806000808473ffffffffffffffffffffffffffffffffffffffff1673ffffffffffffffffffffffffffffffffffffffff168152602001908152602001600020600082825401925050819055508173ffffffffffffffffffffffffffffffffffffffff16600073ffffffffffffffffffffffffffffffffffffffff167fddf252ad1be2c89b69c2b068fc378daa952ba7f163c4a11628f55a4df523b3ef8360405162000389919062000b4c565b60405180910390a3620003a560008383620003c860201b60201c565b5050565b620003b9620003cd60201b60201c565b8060078190555050565b505050565b505050565b620003dd6200016560201b60201c565b73ffffffffffffffffffffffffffffffffffffffff16620004036200045e60201b60201c565b73ffffffffffffffffffffffffffffffffffffffff16146200045c576040517f08c379a0000000000000000000000000000000000000000000000000000000008152600401620004539062000bb9565b60405180910390fd5b565b6000600560009054906101000a900473ffffffffffffffffffffffffffffffffffffffff16905090565b600080fd5b6000819050919050565b620004a2816200048d565b8114620004ae57600080fd5b50565b600081519050620004c28162000497565b92915050565b600060208284031215620004e157620004e062000488565b5b6000620004f184828501620004b1565b91505092915050565b600081519050919050565b7f4e487b7100000000000000000000000000000000000000000000000000000000600052604160045260246000fd5b7f4e487b7100000000000000000000000000000000000000000000000000000000600052602260045260246000fd5b600060028204905060018216806200057c57607f821691505b60208210810362000592576200059162000534565b5b50919050565b60008190508160005260206000209050919050565b60006020601f8301049050919050565b600082821b905092915050565b600060088302620005fc7fffffffffffffffffffffffffffffffffffffffffffffffffffffffffffffffff82620005bd565b620006088683620005bd565b95508019841693508086168417925050509392505050565b6000819050919050565b60006200064b620006456200063f846200048d565b62000620565b6200048d565b9050919050565b6000819050919050565b62000667836200062a565b6200067f620006768262000652565b848454620005ca565b825550505050565b600090565b6200069662000687565b620006a38184846200065c565b505050565b5b81811015620006cb57620006bf6000826200068c565b600181019050620006a9565b5050565b601f8211156200071a57620006e48162000598565b620006ef84620005ad565b81016020851015620006ff578190505b620007176200070e85620005ad565b830182620006a8565b50505b505050565b600082821c905092915050565b60006200073f600019846008026200071f565b1980831691505092915050565b60006200075a83836200072c565b9150826002028217905092915050565b6200077582620004fa565b67ffffffffffffffff81111562000791576200079062000505565b5b6200079d825462000563565b620007aa828285620006cf565b600060209050601f831160018114620007e25760008415620007cd578287015190505b620007d985826200074c565b86555062000849565b601f198416620007f28662000598565b60005b828110156200081c57848901518255600182019150602085019450602081019050620007f5565b868310156200083c578489015162000838601f8916826200072c565b8355505b6001600288020188555050505b505050505050565b7f4e487b7100000000000000000000000000000000000000000000000000000000600052601160045260246000fd5b60008160011c9050919050565b6000808291508390505b6001851115620008df57808604811115620008b757620008b662000851565b5b6001851615620008c75780820291505b8081029050620008d78562000880565b945062000897565b94509492505050565b600082620008fa5760019050620009cd565b816200090a5760009050620009cd565b81600181146200092357600281146200092e5762000964565b6001915050620009cd565b60ff84111562000943576200094262000851565b5b8360020a9150848211156200095d576200095c62000851565b5b50620009cd565b5060208310610133831016604e8410600b84101617156200099e5782820a90508381111562000998576200099762000851565b5b620009cd565b620009ad84848460016200088d565b92509050818404811115620009c757620009c662000851565b5b81810290505b9392505050565b600060ff82169050919050565b6000620009ee826200048d565b9150620009fb83620009d4565b925062000a2a7fffffffffffffffffffffffffffffffffffffffffffffffffffffffffffffffff8484620008e8565b905092915050565b600062000a3f826200048d565b915062000a4c836200048d565b925082820262000a5c816200048d565b9150828204841483151762000a765762000a7562000851565b5b5092915050565b600082825260208201905092915050565b7f45524332303a206d696e7420746f20746865207a65726f206164647265737300600082015250565b600062000ac6601f8362000a7d565b915062000ad38262000a8e565b602082019050919050565b6000602082019050818103600083015262000af98162000ab7565b9050919050565b600062000b0d826200048d565b915062000b1a836200048d565b925082820190508082111562000b355762000b3462000851565b5b92915050565b62000b46816200048d565b82525050565b600060208201905062000b63600083018462000b3b565b92915050565b7f4f776e61626c653a2063616c6c6572206973206e6f7420746865206f776e6572600082015250565b600062000ba160208362000a7d565b915062000bae8262000b69565b602082019050919050565b6000602082019050818103600083015262000bd48162000b92565b9050919050565b612acb8062000beb6000396000f3fe608060405234801561001057600080fd5b506004361061012c5760003560e01c806370a08231116100ad578063a694fc3a11610071578063a694fc3a14610323578063a9059cbb1461033f578063dd62ed3e1461036f578063e73e14bf1461039f578063f2fde38b146103cf5761012c565b806370a082311461027d578063715018a6146102ad5780638da5cb5b146102b757806395d89b41146102d5578063a457c2d7146102f35761012c565b8063313ce567116100f4578063313ce567146101d7578063378dc3dc146101f55780633853e78814610213578063395093511461023157806362cdb9ee146102615761012c565b806306fdde0314610131578063095ea7b31461014f57806318160ddd1461017f57806323b872dd1461019d578063289ed738146101cd575b600080fd5b6101396103eb565b6040516101469190611b7e565b60405180910390f35b61016960048036038101906101649190611c39565b61047d565b6040516101769190611c94565b60405180910390f35b6101876104a0565b6040516101949190611cbe565b60405180910390f35b6101b760048036038101906101b29190611cd9565b6104aa565b6040516101c49190611c94565b60405180910390f35b6101d56104d9565b005b6101df610545565b6040516101ec9190611d48565b60405180910390f35b6101fd61054e565b60405161020a9190611cbe565b60405180910390f35b61021b610554565b6040516102289190611cbe565b60405180910390f35b61024b60048036038101906102469190611c39565b61055a565b6040516102589190611c94565b60405180910390f35b61027b60048036038101906102769190611d63565b610591565b005b61029760048036038101906102929190611d90565b6105a3565b6040516102a49190611cbe565b60405180910390f35b6102b56105eb565b005b6102bf6105ff565b6040516102cc9190611dcc565b60405180910390f35b6102dd610629565b6040516102ea9190611b7e565b60405180910390f35b61030d60048036038101906103089190611c39565b6106bb565b60405161031a9190611c94565b60405180910390f35b61033d60048036038101906103389190611d63565b610732565b005b61035960048036038101906103549190611c39565b61082a565b6040516103669190611c94565b60405180910390f35b61038960048036038101906103849190611de7565b61084d565b6040516103969190611cbe565b60405180910390f35b6103b960048036038101906103b49190611d90565b6108d4565b6040516103c69190611f86565b60405180910390f35b6103e960048036038101906103e49190611d90565b610b8b565b005b6060600380546103fa90611fd7565b80601f016020809104026020016040519081016040528092919081815260200182805461042690611fd7565b80156104735780601f1061044857610100808354040283529160200191610473565b820191906000526020600020905b81548152906001019060200180831161045657829003601f168201915b5050505050905090565b600080610488610c0e565b9050610495818585610c16565b600191505092915050565b6000600254905090565b6000806104b5610c0e565b90506104c2858285610ddf565b6104cd858585610e6b565b60019150509392505050565b426301e133806007546104ec9190612037565b1061052c576040517f08c379a0000000000000000000000000000000000000000000000000000000008152600401610523906120b7565b60405180910390fd5b60006105366110e1565b905061054233826112a2565b50565b60006012905090565b60065481565b60075481565b600080610565610c0e565b9050610586818585610577858961084d565b6105819190612037565b610c16565b600191505092915050565b6105996113f8565b8060078190555050565b60008060008373ffffffffffffffffffffffffffffffffffffffff1673ffffffffffffffffffffffffffffffffffffffff168152602001908152602001600020549050919050565b6105f36113f8565b6105fd6000611476565b565b6000600560009054906101000a900473ffffffffffffffffffffffffffffffffffffffff16905090565b60606004805461063890611fd7565b80601f016020809104026020016040519081016040528092919081815260200182805461066490611fd7565b80156106b15780601f10610686576101008083540402835291602001916106b1565b820191906000526020600020905b81548152906001019060200180831161069457829003601f168201915b5050505050905090565b6000806106c6610c0e565b905060006106d4828661084d565b905083811015610719576040517f08c379a000000000000000000000000000000000000000000000000000000000815260040161071090612149565b60405180910390fd5b6107268286868403610c16565b60019250505092915050565b4260075410610776576040517f08c379a000000000000000000000000000000000000000000000000000000000815260040161076d906121b5565b60405180910390fd5b6301e133806007546107889190612037565b42106107c9576040517f08c379a00000000000000000000000000000000000000000000000000000000081526004016107c090612221565b60405180910390fd5b6107d2336105a3565b811115610814576040517f08c379a000000000000000000000000000000000000000000000000000000000815260040161080b9061228d565b60405180910390fd5b61081d8161153c565b6108273382611720565b50565b600080610835610c0e565b9050610842818585610e6b565b600191505092915050565b6000600160008473ffffffffffffffffffffffffffffffffffffffff1673ffffffffffffffffffffffffffffffffffffffff16815260200190815260200160002060008373ffffffffffffffffffffffffffffffffffffffff1673ffffffffffffffffffffffffffffffffffffffff16815260200190815260200160002054905092915050565b6108dc611a5a565b6000806008600960008673ffffffffffffffffffffffffffffffffffffffff1673ffffffffffffffffffffffffffffffffffffffff1681526020019081526020016000205481548110610932576109316122ad565b5b90600052602060002090600202016001018054905011610987576040517f08c379a000000000000000000000000000000000000000000000000000000000815260040161097e90612328565b60405180910390fd5b60006040518060400160405280600081526020016008600960008873ffffffffffffffffffffffffffffffffffffffff1673ffffffffffffffffffffffffffffffffffffffff16815260200190815260200160002054815481106109ee576109ed6122ad565b5b9060005260206000209060020201600101805480602002602001604051908101604052809291908181526020016000905b82821015610ac557838290600052602060002090600402016040518060800160405290816000820160009054906101000a900473ffffffffffffffffffffffffffffffffffffffff1673ffffffffffffffffffffffffffffffffffffffff1673ffffffffffffffffffffffffffffffffffffffff168152602001600182015481526020016002820154815260200160038201548152505081526020019060010190610a1f565b50505050815250905060005b816020015151811015610b76576000610b0783602001518381518110610afa57610af96122ad565b5b60200260200101516118ed565b90508083602001518381518110610b2157610b206122ad565b5b6020026020010151606001818152505082602001518281518110610b4857610b476122ad565b5b60200260200101516020015184610b5f9190612037565b935050600181610b6f9190612037565b9050610ad1565b50818160000181815250508092505050919050565b610b936113f8565b600073ffffffffffffffffffffffffffffffffffffffff168173ffffffffffffffffffffffffffffffffffffffff1603610c02576040517f08c379a0000000000000000000000000000000000000000000000000000000008152600401610bf9906123ba565b60405180910390fd5b610c0b81611476565b50565b600033905090565b600073ffffffffffffffffffffffffffffffffffffffff168373ffffffffffffffffffffffffffffffffffffffff1603610c85576040517f08c379a0000000000000000000000000000000000000000000000000000000008152600401610c7c9061244c565b60405180910390fd5b600073ffffffffffffffffffffffffffffffffffffffff168273ffffffffffffffffffffffffffffffffffffffff1603610cf4576040517f08c379a0000000000000000000000000000000000000000000000000000000008152600401610ceb906124de565b60405180910390fd5b80600160008573ffffffffffffffffffffffffffffffffffffffff1673ffffffffffffffffffffffffffffffffffffffff16815260200190815260200160002060008473ffffffffffffffffffffffffffffffffffffffff1673ffffffffffffffffffffffffffffffffffffffff168152602001908152602001600020819055508173ffffffffffffffffffffffffffffffffffffffff168373ffffffffffffffffffffffffffffffffffffffff167f8c5be1e5ebec7d5bd14f71427d1e84f3dd0314c0f7b2291e5b200ac8c7c3b92583604051610dd29190611cbe565b60405180910390a3505050565b6000610deb848461084d565b90507fffffffffffffffffffffffffffffffffffffffffffffffffffffffffffffffff8114610e655781811015610e57576040517f08c379a0000000000000000000000000000000000000000000000000000000008152600401610e4e9061254a565b60405180910390fd5b610e648484848403610c16565b5b50505050565b600073ffffffffffffffffffffffffffffffffffffffff168373ffffffffffffffffffffffffffffffffffffffff1603610eda576040517f08c379a0000000000000000000000000000000000000000000000000000000008152600401610ed1906125dc565b60405180910390fd5b600073ffffffffffffffffffffffffffffffffffffffff168273ffffffffffffffffffffffffffffffffffffffff1603610f49576040517f08c379a0000000000000000000000000000000000000000000000000000000008152600401610f409061266e565b60405180910390fd5b610f54838383611969565b60008060008573ffffffffffffffffffffffffffffffffffffffff1673ffffffffffffffffffffffffffffffffffffffff16815260200190815260200160002054905081811015610fda576040517f08c379a0000000000000000000000000000000000000000000000000000000008152600401610fd190612700565b60405180910390fd5b8181036000808673ffffffffffffffffffffffffffffffffffffffff1673ffffffffffffffffffffffffffffffffffffffff16815260200190815260200160002081905550816000808573ffffffffffffffffffffffffffffffffffffffff1673ffffffffffffffffffffffffffffffffffffffff168152602001908152602001600020600082825401925050819055508273ffffffffffffffffffffffffffffffffffffffff168473ffffffffffffffffffffffffffffffffffffffff167fddf252ad1be2c89b69c2b068fc378daa952ba7f163c4a11628f55a4df523b3ef846040516110c89190611cbe565b60405180910390a36110db84848461196e565b50505050565b600080600960003373ffffffffffffffffffffffffffffffffffffffff1673ffffffffffffffffffffffffffffffffffffffff1681526020019081526020016000205490506000805b6008838154811061113e5761113d6122ad565b5b906000526020600020906002020160010180549050811015611268576000600884815481106111705761116f6122ad565b5b90600052602060002090600202016001018281548110611193576111926122ad565b5b90600052602060002090600402016040518060800160405290816000820160009054906101000a900473ffffffffffffffffffffffffffffffffffffffff1673ffffffffffffffffffffffffffffffffffffffff1673ffffffffffffffffffffffffffffffffffffffff168152602001600182015481526020016002820154815260200160038201548152505090506000816020015190506000611236836118ed565b90508082866112459190612037565b61124f9190612037565b94505050506001816112619190612037565b905061112a565b506008828154811061127d5761127c6122ad565b5b9060005260206000209060020201600101600061129a9190611a74565b809250505090565b600073ffffffffffffffffffffffffffffffffffffffff168273ffffffffffffffffffffffffffffffffffffffff1603611311576040517f08c379a00000000000000000000000000000000000000000000000000000000081526004016113089061276c565b60405180910390fd5b61131d60008383611969565b806002600082825461132f9190612037565b92505081905550806000808473ffffffffffffffffffffffffffffffffffffffff1673ffffffffffffffffffffffffffffffffffffffff168152602001908152602001600020600082825401925050819055508173ffffffffffffffffffffffffffffffffffffffff16600073ffffffffffffffffffffffffffffffffffffffff167fddf252ad1be2c89b69c2b068fc378daa952ba7f163c4a11628f55a4df523b3ef836040516113e09190611cbe565b60405180910390a36113f46000838361196e565b5050565b611400610c0e565b73ffffffffffffffffffffffffffffffffffffffff1661141e6105ff565b73ffffffffffffffffffffffffffffffffffffffff1614611474576040517f08c379a000000000000000000000000000000000000000000000000000000000815260040161146b906127d8565b60405180910390fd5b565b6000600560009054906101000a900473ffffffffffffffffffffffffffffffffffffffff16905081600560006101000a81548173ffffffffffffffffffffffffffffffffffffffff021916908373ffffffffffffffffffffffffffffffffffffffff1602179055508173ffffffffffffffffffffffffffffffffffffffff168173ffffffffffffffffffffffffffffffffffffffff167f8be0079c531659141344cd1fd0a4f28419497f9722a3daafe3b4186f6b6457e060405160405180910390a35050565b6000811161157f576040517f08c379a000000000000000000000000000000000000000000000000000000000815260040161157690612844565b60405180910390fd5b6000600960003373ffffffffffffffffffffffffffffffffffffffff1673ffffffffffffffffffffffffffffffffffffffff1681526020019081526020016000205490506000429050600082036115dc576115d933611973565b91505b600882815481106115f0576115ef6122ad565b5b906000526020600020906002020160010160405180608001604052803373ffffffffffffffffffffffffffffffffffffffff1681526020018581526020018381526020016000815250908060018154018082558091505060019003906000526020600020906004020160009091909190915060008201518160000160006101000a81548173ffffffffffffffffffffffffffffffffffffffff021916908373ffffffffffffffffffffffffffffffffffffffff16021790555060208201518160010155604082015181600201556060820151816003015550503373ffffffffffffffffffffffffffffffffffffffff167fb4caaf29adda3eefee3ad552a8e85058589bf834c7466cae4ee58787f70589ed84848460405161171393929190612864565b60405180910390a2505050565b600073ffffffffffffffffffffffffffffffffffffffff168273ffffffffffffffffffffffffffffffffffffffff160361178f576040517f08c379a00000000000000000000000000000000000000000000000000000000081526004016117869061290d565b60405180910390fd5b61179b82600083611969565b60008060008473ffffffffffffffffffffffffffffffffffffffff1673ffffffffffffffffffffffffffffffffffffffff16815260200190815260200160002054905081811015611821576040517f08c379a00000000000000000000000000000000000000000000000000000000081526004016118189061299f565b60405180910390fd5b8181036000808573ffffffffffffffffffffffffffffffffffffffff1673ffffffffffffffffffffffffffffffffffffffff1681526020019081526020016000208190555081600260008282540392505081905550600073ffffffffffffffffffffffffffffffffffffffff168373ffffffffffffffffffffffffffffffffffffffff167fddf252ad1be2c89b69c2b068fc378daa952ba7f163c4a11628f55a4df523b3ef846040516118d49190611cbe565b60405180910390a36118e88360008461196e565b505050565b6000808260400151905060006301e1338060075461190b9190612037565b9050600062015180838361191f91906129bf565b6119299190612a22565b9050600064087f91cd0062a98ac78388602001516119479190612a53565b6119519190612a53565b61195b9190612a22565b905080945050505050919050565b505050565b505050565b6000600860018160018154018082558091505003906000526020600020905050600060016008805490506119a791906129bf565b905082600882815481106119be576119bd6122ad565b5b906000526020600020906002020160000160006101000a81548173ffffffffffffffffffffffffffffffffffffffff021916908373ffffffffffffffffffffffffffffffffffffffff16021790555080600960008573ffffffffffffffffffffffffffffffffffffffff1673ffffffffffffffffffffffffffffffffffffffff1681526020019081526020016000208190555080915050919050565b604051806040016040528060008152602001606081525090565b5080546000825560040290600052602060002090810190611a959190611a98565b50565b5b80821115611aea57600080820160006101000a81549073ffffffffffffffffffffffffffffffffffffffff021916905560018201600090556002820160009055600382016000905550600401611a99565b5090565b600081519050919050565b600082825260208201905092915050565b60005b83811015611b28578082015181840152602081019050611b0d565b60008484015250505050565b6000601f19601f8301169050919050565b6000611b5082611aee565b611b5a8185611af9565b9350611b6a818560208601611b0a565b611b7381611b34565b840191505092915050565b60006020820190508181036000830152611b988184611b45565b905092915050565b600080fd5b600073ffffffffffffffffffffffffffffffffffffffff82169050919050565b6000611bd082611ba5565b9050919050565b611be081611bc5565b8114611beb57600080fd5b50565b600081359050611bfd81611bd7565b92915050565b6000819050919050565b611c1681611c03565b8114611c2157600080fd5b50565b600081359050611c3381611c0d565b92915050565b60008060408385031215611c5057611c4f611ba0565b5b6000611c5e85828601611bee565b9250506020611c6f85828601611c24565b9150509250929050565b60008115159050919050565b611c8e81611c79565b82525050565b6000602082019050611ca96000830184611c85565b92915050565b611cb881611c03565b82525050565b6000602082019050611cd36000830184611caf565b92915050565b600080600060608486031215611cf257611cf1611ba0565b5b6000611d0086828701611bee565b9350506020611d1186828701611bee565b9250506040611d2286828701611c24565b9150509250925092565b600060ff82169050919050565b611d4281611d2c565b82525050565b6000602082019050611d5d6000830184611d39565b92915050565b600060208284031215611d7957611d78611ba0565b5b6000611d8784828501611c24565b91505092915050565b600060208284031215611da657611da5611ba0565b5b6000611db484828501611bee565b91505092915050565b611dc681611bc5565b82525050565b6000602082019050611de16000830184611dbd565b92915050565b60008060408385031215611dfe57611dfd611ba0565b5b6000611e0c85828601611bee565b9250506020611e1d85828601611bee565b9150509250929050565b611e3081611c03565b82525050565b600081519050919050565b600082825260208201905092915050565b6000819050602082019050919050565b611e6b81611bc5565b82525050565b608082016000820151611e876000850182611e62565b506020820151611e9a6020850182611e27565b506040820151611ead6040850182611e27565b506060820151611ec06060850182611e27565b50505050565b6000611ed28383611e71565b60808301905092915050565b6000602082019050919050565b6000611ef682611e36565b611f008185611e41565b9350611f0b83611e52565b8060005b83811015611f3c578151611f238882611ec6565b9750611f2e83611ede565b925050600181019050611f0f565b5085935050505092915050565b6000604083016000830151611f616000860182611e27565b5060208301518482036020860152611f798282611eeb565b9150508091505092915050565b60006020820190508181036000830152611fa08184611f49565b905092915050565b7f4e487b7100000000000000000000000000000000000000000000000000000000600052602260045260246000fd5b60006002820490506001821680611fef57607f821691505b60208210810361200257612001611fa8565b5b50919050565b7f4e487b7100000000000000000000000000000000000000000000000000000000600052601160045260246000fd5b600061204282611c03565b915061204d83611c03565b925082820190508082111561206557612064612008565b5b92915050565b7f5769746864726177696e67206973206e6f7420616c6c6f776564207965740000600082015250565b60006120a1601e83611af9565b91506120ac8261206b565b602082019050919050565b600060208201905081810360008301526120d081612094565b9050919050565b7f45524332303a2064656372656173656420616c6c6f77616e63652062656c6f7760008201527f207a65726f000000000000000000000000000000000000000000000000000000602082015250565b6000612133602583611af9565b915061213e826120d7565b604082019050919050565b6000602082019050818103600083015261216281612126565b9050919050565b7f5374616b696e6720686173206e6f742073746172746564207965740000000000600082015250565b600061219f601b83611af9565b91506121aa82612169565b602082019050919050565b600060208201905081810360008301526121ce81612192565b9050919050565b7f5374616b696e672068617320656e646564000000000000000000000000000000600082015250565b600061220b601183611af9565b9150612216826121d5565b602082019050919050565b6000602082019050818103600083015261223a816121fe565b9050919050565b7f43616e6e6f74207374616b65206d6f7265207468616e20796f75206f776e0000600082015250565b6000612277601e83611af9565b915061228282612241565b602082019050919050565b600060208201905081810360008301526122a68161226a565b9050919050565b7f4e487b7100000000000000000000000000000000000000000000000000000000600052603260045260246000fd5b7f4e6f207374616b657320666f756e6420666f722074686973207374616b657200600082015250565b6000612312601f83611af9565b915061231d826122dc565b602082019050919050565b6000602082019050818103600083015261234181612305565b9050919050565b7f4f776e61626c653a206e6577206f776e657220697320746865207a65726f206160008201527f6464726573730000000000000000000000000000000000000000000000000000602082015250565b60006123a4602683611af9565b91506123af82612348565b604082019050919050565b600060208201905081810360008301526123d381612397565b9050919050565b7f45524332303a20617070726f76652066726f6d20746865207a65726f2061646460008201527f7265737300000000000000000000000000000000000000000000000000000000602082015250565b6000612436602483611af9565b9150612441826123da565b604082019050919050565b6000602082019050818103600083015261246581612429565b9050919050565b7f45524332303a20617070726f766520746f20746865207a65726f20616464726560008201527f7373000000000000000000000000000000000000000000000000000000000000602082015250565b60006124c8602283611af9565b91506124d38261246c565b604082019050919050565b600060208201905081810360008301526124f7816124bb565b9050919050565b7f45524332303a20696e73756666696369656e7420616c6c6f77616e6365000000600082015250565b6000612534601d83611af9565b915061253f826124fe565b602082019050919050565b6000602082019050818103600083015261256381612527565b9050919050565b7f45524332303a207472616e736665722066726f6d20746865207a65726f20616460008201527f6472657373000000000000000000000000000000000000000000000000000000602082015250565b60006125c6602583611af9565b91506125d18261256a565b604082019050919050565b600060208201905081810360008301526125f5816125b9565b9050919050565b7f45524332303a207472616e7366657220746f20746865207a65726f206164647260008201527f6573730000000000000000000000000000000000000000000000000000000000602082015250565b6000612658602383611af9565b9150612663826125fc565b604082019050919050565b600060208201905081810360008301526126878161264b565b9050919050565b7f45524332303a207472616e7366657220616d6f756e742065786365656473206260008201527f616c616e63650000000000000000000000000000000000000000000000000000602082015250565b60006126ea602683611af9565b91506126f58261268e565b604082019050919050565b60006020820190508181036000830152612719816126dd565b9050919050565b7f45524332303a206d696e7420746f20746865207a65726f206164647265737300600082015250565b6000612756601f83611af9565b915061276182612720565b602082019050919050565b6000602082019050818103600083015261278581612749565b9050919050565b7f4f776e61626c653a2063616c6c6572206973206e6f7420746865206f776e6572600082015250565b60006127c2602083611af9565b91506127cd8261278c565b602082019050919050565b600060208201905081810360008301526127f1816127b5565b9050919050565b7f43616e6e6f74207374616b65206e6f7468696e67000000000000000000000000600082015250565b600061282e601483611af9565b9150612839826127f8565b602082019050919050565b6000602082019050818103600083015261285d81612821565b9050919050565b60006060820190506128796000830186611caf565b6128866020830185611caf565b6128936040830184611caf565b949350505050565b7f45524332303a206275726e2066726f6d20746865207a65726f2061646472657360008201527f7300000000000000000000000000000000000000000000000000000000000000602082015250565b60006128f7602183611af9565b91506129028261289b565b604082019050919050565b60006020820190508181036000830152612926816128ea565b9050919050565b7f45524332303a206275726e20616d6f756e7420657863656564732062616c616e60008201527f6365000000000000000000000000000000000000000000000000000000000000602082015250565b6000612989602283611af9565b91506129948261292d565b604082019050919050565b600060208201905081810360008301526129b88161297c565b9050919050565b60006129ca82611c03565b91506129d583611c03565b92508282039050818111156129ed576129ec612008565b5b92915050565b7f4e487b7100000000000000000000000000000000000000000000000000000000600052601260045260246000fd5b6000612a2d82611c03565b9150612a3883611c03565b925082612a4857612a476129f3565b5b828204905092915050565b6000612a5e82611c03565b9150612a6983611c03565b9250828202612a7781611c03565b91508282048414831517612a8e57612a8d612008565b5b509291505056fea2646970667358221220bef4a661082383155550343b550719584b0b92b50eaaaa39f2e97bce4d04262a64736f6c63430008130033",
  "immutableReferences": {},
  "source": "// SPDX-License-Identifier: MIT\r\npragma solidity ^0.8.19;\r\n\r\nimport \"@openzeppelin/contracts/token/ERC20/ERC20.sol\";\r\nimport \"@openzeppelin/contracts/access/Ownable.sol\";\r\n\r\ncontract DevToken is ERC20, Ownable {\r\n\r\n    uint256 public initialSupply = 100000000;\r\n\r\n    constructor(uint256 _stakeStartDate) ERC20(\"DevToken\", \"DVTK\") {\r\n        _mint(msg.sender, initialSupply * 10 ** decimals());\r\n        stakeholders.push();\r\n        setStakeStartDate(_stakeStartDate);\r\n    }\r\n\r\n    struct StakingSummary {\r\n        uint256 total_amount;\r\n        Stake[] stakes;\r\n    }\r\n\r\n    struct Stake {\r\n        address user;\r\n        uint256 amount;\r\n        uint256 since;\r\n        uint256 claimable;\r\n    }\r\n\r\n    struct Stakeholder {\r\n        address user;\r\n        Stake[] address_stakes;\r\n    }\r\n\r\n    uint256 public stakeStartDate;\r\n    Stakeholder[] internal stakeholders;\r\n\r\n    mapping(address => uint256) internal stakes;\r\n\r\n    event Staked(address indexed user, uint256 amount, uint256 index, uint256 timestamp);\r\n    event CalculatedReward( uint256 startDate);\r\n    event CalculatedReward1( uint256 startDate, uint256 endDate);\r\n    event CalculatedReward2( uint256 startDate, uint256 endDate, uint256 daysStaked);\r\n    event CalculatedReward3( uint256 startDate, uint256 endDate, uint256 daysStaked, uint256 reward);\r\n\r\n    function setStakeStartDate(uint256 _timestamp) public onlyOwner {\r\n        stakeStartDate = _timestamp;\r\n    }\r\n\r\n    function _addStakeholder(address staker) internal returns (uint256){\r\n        stakeholders.push();\r\n        uint256 userIndex = stakeholders.length - 1;\r\n        stakeholders[userIndex].user = staker;\r\n        stakes[staker] = userIndex;\r\n        return userIndex;\r\n    }\r\n\r\n\r\n    function _stake(uint256 _amount) internal {\r\n        require(_amount > 0, \"Cannot stake nothing\");\r\n\r\n        uint256 index = stakes[msg.sender];\r\n        uint256 timestamp = block.timestamp;\r\n        if (index == 0) {\r\n            index = _addStakeholder(msg.sender);\r\n        }\r\n\r\n        stakeholders[index].address_stakes.push(Stake(msg.sender, _amount, timestamp, 0));\r\n        emit Staked(msg.sender, _amount, index, timestamp);\r\n    }\r\n\r\n    function stake(uint256 _amount) public {\r\n        require(stakeStartDate < block.timestamp, \"Staking has not started yet\");\r\n        require(block.timestamp < (stakeStartDate + 365 days), \"Staking has ended\");\r\n        require(_amount <= balanceOf(msg.sender), \"Cannot stake more than you own\");\r\n\r\n        _stake(_amount);\r\n        _burn(msg.sender, _amount);\r\n    }\r\n\r\n    function hasStake(address _staker) public view returns (StakingSummary memory){\r\n        uint256 totalStakeAmount;\r\n        require(stakeholders[stakes[_staker]].address_stakes.length > 0, \"No stakes found for this staker\");\r\n\r\n        StakingSummary memory summary = StakingSummary(0, stakeholders[stakes[_staker]].address_stakes);\r\n        for (uint256 s = 0; s < summary.stakes.length; s += 1) {\r\n            uint256 availableReward = calculateStakeReward(summary.stakes[s]);\r\n            summary.stakes[s].claimable = availableReward;\r\n            totalStakeAmount = totalStakeAmount + summary.stakes[s].amount;\r\n        }\r\n        summary.total_amount = totalStakeAmount;\r\n        return summary;\r\n    }\r\n\r\n    function withdrawStakes() public {\r\n        require(stakeStartDate + (365 days) < block.timestamp, \"Withdrawing is not allowed yet\");\r\n        uint256 amount_to_mint = _withdrawStakes();\r\n        _mint(msg.sender, amount_to_mint);\r\n    }\r\n\r\n    function _withdrawStakes() internal returns (uint256){\r\n        uint256 user_index = stakes[msg.sender];\r\n        uint256 totalTokens = 0;\r\n        for (uint256 index = 0; index < stakeholders[user_index].address_stakes.length; index += 1) {\r\n            Stake memory current_stake = stakeholders[user_index].address_stakes[index];\r\n            uint256 amount = current_stake.amount;\r\n            uint256 reward = calculateStakeReward(current_stake);\r\n            totalTokens = totalTokens + amount + reward;\r\n        }\r\n\r\n        delete stakeholders[user_index].address_stakes;\r\n        return totalTokens;\r\n    }\r\n\r\n    function calculateStakeReward(Stake memory _current_stake) internal view returns (uint256) {\r\n        uint256 startDate = _current_stake.since;\r\n        //emit CalculatedReward(startDate);\r\n        uint256 endDate = stakeStartDate + 365 days;\r\n        //emit CalculatedReward1(startDate, endDate);\r\n        uint256 daysStaked = (endDate - startDate) / 86400;\r\n        //emit CalculatedReward2(startDate, endDate, daysStaked);\r\n        uint256 reward = (_current_stake.amount * daysStaked * 11111111) / (365 * 10 ** 8);\r\n        //emit CalculatedReward3(startDate, endDate, daysStaked, reward);\r\n        return reward;\r\n    }\r\n\r\n}",
  "sourcePath": "C:\\Users\\omgad\\Desktop\\WebstormProjects\\dapp\\contracts\\DevToken.sol",
  "compiler": {
    "name": "solc",
    "version": "0.8.19+commit.7dd6d404.Emscripten.clang"
  },
  "schemaVersion": "3.4.13",
  "updatedAt": "2023-03-19T20:08:11.242Z",
  "devdoc": {
    "events": {
      "Approval(address,address,uint256)": {
        "details": "Emitted when the allowance of a `spender` for an `owner` is set by a call to {approve}. `value` is the new allowance."
      },
      "Transfer(address,address,uint256)": {
        "details": "Emitted when `value` tokens are moved from one account (`from`) to another (`to`). Note that `value` may be zero."
      }
    },
    "kind": "dev",
    "methods": {
      "allowance(address,address)": {
        "details": "See {IERC20-allowance}."
      },
      "approve(address,uint256)": {
        "details": "See {IERC20-approve}. NOTE: If `amount` is the maximum `uint256`, the allowance is not updated on `transferFrom`. This is semantically equivalent to an infinite approval. Requirements: - `spender` cannot be the zero address."
      },
      "balanceOf(address)": {
        "details": "See {IERC20-balanceOf}."
      },
      "decimals()": {
        "details": "Returns the number of decimals used to get its user representation. For example, if `decimals` equals `2`, a balance of `505` tokens should be displayed to a user as `5.05` (`505 / 10 ** 2`). Tokens usually opt for a value of 18, imitating the relationship between Ether and Wei. This is the value {ERC20} uses, unless this function is overridden; NOTE: This information is only used for _display_ purposes: it in no way affects any of the arithmetic of the contract, including {IERC20-balanceOf} and {IERC20-transfer}."
      },
      "decreaseAllowance(address,uint256)": {
        "details": "Atomically decreases the allowance granted to `spender` by the caller. This is an alternative to {approve} that can be used as a mitigation for problems described in {IERC20-approve}. Emits an {Approval} event indicating the updated allowance. Requirements: - `spender` cannot be the zero address. - `spender` must have allowance for the caller of at least `subtractedValue`."
      },
      "increaseAllowance(address,uint256)": {
        "details": "Atomically increases the allowance granted to `spender` by the caller. This is an alternative to {approve} that can be used as a mitigation for problems described in {IERC20-approve}. Emits an {Approval} event indicating the updated allowance. Requirements: - `spender` cannot be the zero address."
      },
      "name()": {
        "details": "Returns the name of the token."
      },
      "owner()": {
        "details": "Returns the address of the current owner."
      },
      "renounceOwnership()": {
        "details": "Leaves the contract without owner. It will not be possible to call `onlyOwner` functions anymore. Can only be called by the current owner. NOTE: Renouncing ownership will leave the contract without an owner, thereby removing any functionality that is only available to the owner."
      },
      "symbol()": {
        "details": "Returns the symbol of the token, usually a shorter version of the name."
      },
      "totalSupply()": {
        "details": "See {IERC20-totalSupply}."
      },
      "transfer(address,uint256)": {
        "details": "See {IERC20-transfer}. Requirements: - `to` cannot be the zero address. - the caller must have a balance of at least `amount`."
      },
      "transferFrom(address,address,uint256)": {
        "details": "See {IERC20-transferFrom}. Emits an {Approval} event indicating the updated allowance. This is not required by the EIP. See the note at the beginning of {ERC20}. NOTE: Does not update the allowance if the current allowance is the maximum `uint256`. Requirements: - `from` and `to` cannot be the zero address. - `from` must have a balance of at least `amount`. - the caller must have allowance for ``from``'s tokens of at least `amount`."
      },
      "transferOwnership(address)": {
        "details": "Transfers ownership of the contract to a new account (`newOwner`). Can only be called by the current owner."
      }
    },
    "version": 1
  },
  "userdoc": {
    "kind": "user",
    "methods": {},
    "version": 1
  }
}