{
  "contractName": "DevToken",
  "abi": [
    {
      "inputs": [],
      "stateMutability": "nonpayable",
      "type": "constructor"
    },
    {
      "anonymous": false,
      "inputs": [
        {
          "indexed": true,
          "internalType": "address",
          "name": "owner",
          "type": "address"
        },
        {
          "indexed": true,
          "internalType": "address",
          "name": "spender",
          "type": "address"
        },
        {
          "indexed": false,
          "internalType": "uint256",
          "name": "value",
          "type": "uint256"
        }
      ],
      "name": "Approval",
      "type": "event"
    },
    {
      "anonymous": false,
      "inputs": [
        {
          "indexed": true,
          "internalType": "address",
          "name": "previousOwner",
          "type": "address"
        },
        {
          "indexed": true,
          "internalType": "address",
          "name": "newOwner",
          "type": "address"
        }
      ],
      "name": "OwnershipTransferred",
      "type": "event"
    },
    {
      "anonymous": false,
      "inputs": [
        {
          "indexed": true,
          "internalType": "address",
          "name": "user",
          "type": "address"
        },
        {
          "indexed": false,
          "internalType": "uint256",
          "name": "amount",
          "type": "uint256"
        },
        {
          "indexed": false,
          "internalType": "uint256",
          "name": "index",
          "type": "uint256"
        },
        {
          "indexed": false,
          "internalType": "uint256",
          "name": "timestamp",
          "type": "uint256"
        }
      ],
      "name": "Staked",
      "type": "event"
    },
    {
      "anonymous": false,
      "inputs": [
        {
          "indexed": true,
          "internalType": "address",
          "name": "from",
          "type": "address"
        },
        {
          "indexed": true,
          "internalType": "address",
          "name": "to",
          "type": "address"
        },
        {
          "indexed": false,
          "internalType": "uint256",
          "name": "value",
          "type": "uint256"
        }
      ],
      "name": "Transfer",
      "type": "event"
    },
    {
      "inputs": [
        {
          "internalType": "address",
          "name": "owner",
          "type": "address"
        },
        {
          "internalType": "address",
          "name": "spender",
          "type": "address"
        }
      ],
      "name": "allowance",
      "outputs": [
        {
          "internalType": "uint256",
          "name": "",
          "type": "uint256"
        }
      ],
      "stateMutability": "view",
      "type": "function",
      "constant": true
    },
    {
      "inputs": [
        {
          "internalType": "address",
          "name": "spender",
          "type": "address"
        },
        {
          "internalType": "uint256",
          "name": "amount",
          "type": "uint256"
        }
      ],
      "name": "approve",
      "outputs": [
        {
          "internalType": "bool",
          "name": "",
          "type": "bool"
        }
      ],
      "stateMutability": "nonpayable",
      "type": "function"
    },
    {
      "inputs": [
        {
          "internalType": "address",
          "name": "account",
          "type": "address"
        }
      ],
      "name": "balanceOf",
      "outputs": [
        {
          "internalType": "uint256",
          "name": "",
          "type": "uint256"
        }
      ],
      "stateMutability": "view",
      "type": "function",
      "constant": true
    },
    {
      "inputs": [],
      "name": "decimals",
      "outputs": [
        {
          "internalType": "uint8",
          "name": "",
          "type": "uint8"
        }
      ],
      "stateMutability": "view",
      "type": "function",
      "constant": true
    },
    {
      "inputs": [
        {
          "internalType": "address",
          "name": "spender",
          "type": "address"
        },
        {
          "internalType": "uint256",
          "name": "subtractedValue",
          "type": "uint256"
        }
      ],
      "name": "decreaseAllowance",
      "outputs": [
        {
          "internalType": "bool",
          "name": "",
          "type": "bool"
        }
      ],
      "stateMutability": "nonpayable",
      "type": "function"
    },
    {
      "inputs": [
        {
          "internalType": "address",
          "name": "spender",
          "type": "address"
        },
        {
          "internalType": "uint256",
          "name": "addedValue",
          "type": "uint256"
        }
      ],
      "name": "increaseAllowance",
      "outputs": [
        {
          "internalType": "bool",
          "name": "",
          "type": "bool"
        }
      ],
      "stateMutability": "nonpayable",
      "type": "function"
    },
    {
      "inputs": [],
      "name": "initialSupply",
      "outputs": [
        {
          "internalType": "uint256",
          "name": "",
          "type": "uint256"
        }
      ],
      "stateMutability": "view",
      "type": "function",
      "constant": true
    },
    {
      "inputs": [],
      "name": "name",
      "outputs": [
        {
          "internalType": "string",
          "name": "",
          "type": "string"
        }
      ],
      "stateMutability": "view",
      "type": "function",
      "constant": true
    },
    {
      "inputs": [],
      "name": "owner",
      "outputs": [
        {
          "internalType": "address",
          "name": "",
          "type": "address"
        }
      ],
      "stateMutability": "view",
      "type": "function",
      "constant": true
    },
    {
      "inputs": [],
      "name": "renounceOwnership",
      "outputs": [],
      "stateMutability": "nonpayable",
      "type": "function"
    },
    {
      "inputs": [],
      "name": "stakeStartDate",
      "outputs": [
        {
          "internalType": "uint256",
          "name": "",
          "type": "uint256"
        }
      ],
      "stateMutability": "view",
      "type": "function",
      "constant": true
    },
    {
      "inputs": [],
      "name": "symbol",
      "outputs": [
        {
          "internalType": "string",
          "name": "",
          "type": "string"
        }
      ],
      "stateMutability": "view",
      "type": "function",
      "constant": true
    },
    {
      "inputs": [],
      "name": "totalSupply",
      "outputs": [
        {
          "internalType": "uint256",
          "name": "",
          "type": "uint256"
        }
      ],
      "stateMutability": "view",
      "type": "function",
      "constant": true
    },
    {
      "inputs": [
        {
          "internalType": "address",
          "name": "to",
          "type": "address"
        },
        {
          "internalType": "uint256",
          "name": "amount",
          "type": "uint256"
        }
      ],
      "name": "transfer",
      "outputs": [
        {
          "internalType": "bool",
          "name": "",
          "type": "bool"
        }
      ],
      "stateMutability": "nonpayable",
      "type": "function"
    },
    {
      "inputs": [
        {
          "internalType": "address",
          "name": "from",
          "type": "address"
        },
        {
          "internalType": "address",
          "name": "to",
          "type": "address"
        },
        {
          "internalType": "uint256",
          "name": "amount",
          "type": "uint256"
        }
      ],
      "name": "transferFrom",
      "outputs": [
        {
          "internalType": "bool",
          "name": "",
          "type": "bool"
        }
      ],
      "stateMutability": "nonpayable",
      "type": "function"
    },
    {
      "inputs": [
        {
          "internalType": "address",
          "name": "newOwner",
          "type": "address"
        }
      ],
      "name": "transferOwnership",
      "outputs": [],
      "stateMutability": "nonpayable",
      "type": "function"
    },
    {
      "inputs": [
        {
          "internalType": "uint256",
          "name": "_timestamp",
          "type": "uint256"
        }
      ],
      "name": "setStakeStartDate",
      "outputs": [],
      "stateMutability": "nonpayable",
      "type": "function"
    },
    {
      "inputs": [
        {
          "internalType": "uint256",
          "name": "_amount",
          "type": "uint256"
        }
      ],
      "name": "stake",
      "outputs": [],
      "stateMutability": "nonpayable",
      "type": "function"
    },
    {
      "inputs": [
        {
          "internalType": "address",
          "name": "_staker",
          "type": "address"
        }
      ],
      "name": "hasStake",
      "outputs": [
        {
          "components": [
            {
              "internalType": "uint256",
              "name": "total_amount",
              "type": "uint256"
            },
            {
              "components": [
                {
                  "internalType": "address",
                  "name": "user",
                  "type": "address"
                },
                {
                  "internalType": "uint256",
                  "name": "amount",
                  "type": "uint256"
                },
                {
                  "internalType": "uint256",
                  "name": "since",
                  "type": "uint256"
                },
                {
                  "internalType": "uint256",
                  "name": "claimable",
                  "type": "uint256"
                }
              ],
              "internalType": "struct DevToken.Stake[]",
              "name": "stakes",
              "type": "tuple[]"
            }
          ],
          "internalType": "struct DevToken.StakingSummary",
          "name": "",
          "type": "tuple"
        }
      ],
      "stateMutability": "view",
      "type": "function",
      "constant": true
    },
    {
      "inputs": [],
      "name": "withdrawStakes",
      "outputs": [],
      "stateMutability": "nonpayable",
      "type": "function"
    }
  ],
  "bytecode": "0x60806040526305f5e10060065560006007553480156200001e57600080fd5b506040518060400160405280600881526020017f446576546f6b656e0000000000000000000000000000000000000000000000008152506040518060400160405280600481526020017f4456544b0000000000000000000000000000000000000000000000000000000081525081600390816200009c9190620005fb565b508060049081620000ae9190620005fb565b505050620000d1620000c56200013360201b60201c565b6200013b60201b60201c565b6200010f33620000e66200020160201b60201c565b600a620000f4919062000872565b600654620001039190620008c3565b6200020a60201b60201c565b600860018160018154018082558091505003906000526020600020905050620009fa565b600033905090565b6000600560009054906101000a900473ffffffffffffffffffffffffffffffffffffffff16905081600560006101000a81548173ffffffffffffffffffffffffffffffffffffffff021916908373ffffffffffffffffffffffffffffffffffffffff1602179055508173ffffffffffffffffffffffffffffffffffffffff168173ffffffffffffffffffffffffffffffffffffffff167f8be0079c531659141344cd1fd0a4f28419497f9722a3daafe3b4186f6b6457e060405160405180910390a35050565b60006012905090565b600073ffffffffffffffffffffffffffffffffffffffff168273ffffffffffffffffffffffffffffffffffffffff16036200027c576040517f08c379a000000000000000000000000000000000000000000000000000000000815260040162000273906200096f565b60405180910390fd5b62000290600083836200037760201b60201c565b8060026000828254620002a4919062000991565b92505081905550806000808473ffffffffffffffffffffffffffffffffffffffff1673ffffffffffffffffffffffffffffffffffffffff168152602001908152602001600020600082825401925050819055508173ffffffffffffffffffffffffffffffffffffffff16600073ffffffffffffffffffffffffffffffffffffffff167fddf252ad1be2c89b69c2b068fc378daa952ba7f163c4a11628f55a4df523b3ef83604051620003579190620009dd565b60405180910390a362000373600083836200037c60201b60201c565b5050565b505050565b505050565b600081519050919050565b7f4e487b7100000000000000000000000000000000000000000000000000000000600052604160045260246000fd5b7f4e487b7100000000000000000000000000000000000000000000000000000000600052602260045260246000fd5b600060028204905060018216806200040357607f821691505b602082108103620004195762000418620003bb565b5b50919050565b60008190508160005260206000209050919050565b60006020601f8301049050919050565b600082821b905092915050565b600060088302620004837fffffffffffffffffffffffffffffffffffffffffffffffffffffffffffffffff8262000444565b6200048f868362000444565b95508019841693508086168417925050509392505050565b6000819050919050565b6000819050919050565b6000620004dc620004d6620004d084620004a7565b620004b1565b620004a7565b9050919050565b6000819050919050565b620004f883620004bb565b620005106200050782620004e3565b84845462000451565b825550505050565b600090565b6200052762000518565b62000534818484620004ed565b505050565b5b818110156200055c57620005506000826200051d565b6001810190506200053a565b5050565b601f821115620005ab5762000575816200041f565b620005808462000434565b8101602085101562000590578190505b620005a86200059f8562000434565b83018262000539565b50505b505050565b600082821c905092915050565b6000620005d060001984600802620005b0565b1980831691505092915050565b6000620005eb8383620005bd565b9150826002028217905092915050565b620006068262000381565b67ffffffffffffffff8111156200062257620006216200038c565b5b6200062e8254620003ea565b6200063b82828562000560565b600060209050601f8311600181146200067357600084156200065e578287015190505b6200066a8582620005dd565b865550620006da565b601f19841662000683866200041f565b60005b82811015620006ad5784890151825560018201915060208501945060208101905062000686565b86831015620006cd5784890151620006c9601f891682620005bd565b8355505b6001600288020188555050505b505050505050565b7f4e487b7100000000000000000000000000000000000000000000000000000000600052601160045260246000fd5b60008160011c9050919050565b6000808291508390505b60018511156200077057808604811115620007485762000747620006e2565b5b6001851615620007585780820291505b8081029050620007688562000711565b945062000728565b94509492505050565b6000826200078b57600190506200085e565b816200079b57600090506200085e565b8160018114620007b45760028114620007bf57620007f5565b60019150506200085e565b60ff841115620007d457620007d3620006e2565b5b8360020a915084821115620007ee57620007ed620006e2565b5b506200085e565b5060208310610133831016604e8410600b84101617156200082f5782820a905083811115620008295762000828620006e2565b5b6200085e565b6200083e84848460016200071e565b92509050818404811115620008585762000857620006e2565b5b81810290505b9392505050565b600060ff82169050919050565b60006200087f82620004a7565b91506200088c8362000865565b9250620008bb7fffffffffffffffffffffffffffffffffffffffffffffffffffffffffffffffff848462000779565b905092915050565b6000620008d082620004a7565b9150620008dd83620004a7565b9250828202620008ed81620004a7565b91508282048414831517620009075762000906620006e2565b5b5092915050565b600082825260208201905092915050565b7f45524332303a206d696e7420746f20746865207a65726f206164647265737300600082015250565b600062000957601f836200090e565b915062000964826200091f565b602082019050919050565b600060208201905081810360008301526200098a8162000948565b9050919050565b60006200099e82620004a7565b9150620009ab83620004a7565b9250828201905080821115620009c657620009c5620006e2565b5b92915050565b620009d781620004a7565b82525050565b6000602082019050620009f46000830184620009cc565b92915050565b612bf28062000a0a6000396000f3fe608060405234801561001057600080fd5b506004361061012c5760003560e01c806370a08231116100ad578063a694fc3a11610071578063a694fc3a14610323578063a9059cbb1461033f578063dd62ed3e1461036f578063e73e14bf1461039f578063f2fde38b146103cf5761012c565b806370a082311461027d578063715018a6146102ad5780638da5cb5b146102b757806395d89b41146102d5578063a457c2d7146102f35761012c565b8063313ce567116100f4578063313ce567146101d7578063378dc3dc146101f55780633853e78814610213578063395093511461023157806362cdb9ee146102615761012c565b806306fdde0314610131578063095ea7b31461014f57806318160ddd1461017f57806323b872dd1461019d578063289ed738146101cd575b600080fd5b6101396103eb565b6040516101469190611c13565b60405180910390f35b61016960048036038101906101649190611cce565b61047d565b6040516101769190611d29565b60405180910390f35b6101876104a0565b6040516101949190611d53565b60405180910390f35b6101b760048036038101906101b29190611d6e565b6104aa565b6040516101c49190611d29565b60405180910390f35b6101d56104d9565b005b6101df610545565b6040516101ec9190611ddd565b60405180910390f35b6101fd61054e565b60405161020a9190611d53565b60405180910390f35b61021b610554565b6040516102289190611d53565b60405180910390f35b61024b60048036038101906102469190611cce565b61055a565b6040516102589190611d29565b60405180910390f35b61027b60048036038101906102769190611df8565b610591565b005b61029760048036038101906102929190611e25565b6105e5565b6040516102a49190611d53565b60405180910390f35b6102b561062d565b005b6102bf610641565b6040516102cc9190611e61565b60405180910390f35b6102dd61066b565b6040516102ea9190611c13565b60405180910390f35b61030d60048036038101906103089190611cce565b6106fd565b60405161031a9190611d29565b60405180910390f35b61033d60048036038101906103389190611df8565b610774565b005b61035960048036038101906103549190611cce565b6108b1565b6040516103669190611d29565b60405180910390f35b61038960048036038101906103849190611e7c565b6108d4565b6040516103969190611d53565b60405180910390f35b6103b960048036038101906103b49190611e25565b61095b565b6040516103c6919061201b565b60405180910390f35b6103e960048036038101906103e49190611e25565b610c12565b005b6060600380546103fa9061206c565b80601f01602080910402602001604051908101604052809291908181526020018280546104269061206c565b80156104735780601f1061044857610100808354040283529160200191610473565b820191906000526020600020905b81548152906001019060200180831161045657829003601f168201915b5050505050905090565b600080610488610c95565b9050610495818585610c9d565b600191505092915050565b6000600254905090565b6000806104b5610c95565b90506104c2858285610e66565b6104cd858585610ef2565b60019150509392505050565b426301e133806007546104ec91906120cc565b1061052c576040517f08c379a00000000000000000000000000000000000000000000000000000000081526004016105239061214c565b60405180910390fd5b6000610536611168565b90506105423382611329565b50565b60006012905090565b60065481565b60075481565b600080610565610c95565b905061058681858561057785896108d4565b61058191906120cc565b610c9d565b600191505092915050565b61059961147f565b8042106105db576040517f08c379a00000000000000000000000000000000000000000000000000000000081526004016105d2906121de565b60405180910390fd5b8060078190555050565b60008060008373ffffffffffffffffffffffffffffffffffffffff1673ffffffffffffffffffffffffffffffffffffffff168152602001908152602001600020549050919050565b61063561147f565b61063f60006114fd565b565b6000600560009054906101000a900473ffffffffffffffffffffffffffffffffffffffff16905090565b60606004805461067a9061206c565b80601f01602080910402602001604051908101604052809291908181526020018280546106a69061206c565b80156106f35780601f106106c8576101008083540402835291602001916106f3565b820191906000526020600020905b8154815290600101906020018083116106d657829003601f168201915b5050505050905090565b600080610708610c95565b9050600061071682866108d4565b90508381101561075b576040517f08c379a000000000000000000000000000000000000000000000000000000000815260040161075290612270565b60405180910390fd5b6107688286868403610c9d565b60019250505092915050565b6000600754116107b9576040517f08c379a00000000000000000000000000000000000000000000000000000000081526004016107b0906122dc565b60405180910390fd5b42600754106107fd576040517f08c379a00000000000000000000000000000000000000000000000000000000081526004016107f4906122dc565b60405180910390fd5b6301e1338060075461080f91906120cc565b4210610850576040517f08c379a000000000000000000000000000000000000000000000000000000000815260040161084790612348565b60405180910390fd5b610859336105e5565b81111561089b576040517f08c379a0000000000000000000000000000000000000000000000000000000008152600401610892906123b4565b60405180910390fd5b6108a4816115c3565b6108ae33826117a7565b50565b6000806108bc610c95565b90506108c9818585610ef2565b600191505092915050565b6000600160008473ffffffffffffffffffffffffffffffffffffffff1673ffffffffffffffffffffffffffffffffffffffff16815260200190815260200160002060008373ffffffffffffffffffffffffffffffffffffffff1673ffffffffffffffffffffffffffffffffffffffff16815260200190815260200160002054905092915050565b610963611aef565b6000806008600960008673ffffffffffffffffffffffffffffffffffffffff1673ffffffffffffffffffffffffffffffffffffffff16815260200190815260200160002054815481106109b9576109b86123d4565b5b90600052602060002090600202016001018054905011610a0e576040517f08c379a0000000000000000000000000000000000000000000000000000000008152600401610a059061244f565b60405180910390fd5b60006040518060400160405280600081526020016008600960008873ffffffffffffffffffffffffffffffffffffffff1673ffffffffffffffffffffffffffffffffffffffff1681526020019081526020016000205481548110610a7557610a746123d4565b5b9060005260206000209060020201600101805480602002602001604051908101604052809291908181526020016000905b82821015610b4c57838290600052602060002090600402016040518060800160405290816000820160009054906101000a900473ffffffffffffffffffffffffffffffffffffffff1673ffffffffffffffffffffffffffffffffffffffff1673ffffffffffffffffffffffffffffffffffffffff168152602001600182015481526020016002820154815260200160038201548152505081526020019060010190610aa6565b50505050815250905060005b816020015151811015610bfd576000610b8e83602001518381518110610b8157610b806123d4565b5b6020026020010151611974565b90508083602001518381518110610ba857610ba76123d4565b5b6020026020010151606001818152505082602001518281518110610bcf57610bce6123d4565b5b60200260200101516020015184610be691906120cc565b935050600181610bf691906120cc565b9050610b58565b50818160000181815250508092505050919050565b610c1a61147f565b600073ffffffffffffffffffffffffffffffffffffffff168173ffffffffffffffffffffffffffffffffffffffff1603610c89576040517f08c379a0000000000000000000000000000000000000000000000000000000008152600401610c80906124e1565b60405180910390fd5b610c92816114fd565b50565b600033905090565b600073ffffffffffffffffffffffffffffffffffffffff168373ffffffffffffffffffffffffffffffffffffffff1603610d0c576040517f08c379a0000000000000000000000000000000000000000000000000000000008152600401610d0390612573565b60405180910390fd5b600073ffffffffffffffffffffffffffffffffffffffff168273ffffffffffffffffffffffffffffffffffffffff1603610d7b576040517f08c379a0000000000000000000000000000000000000000000000000000000008152600401610d7290612605565b60405180910390fd5b80600160008573ffffffffffffffffffffffffffffffffffffffff1673ffffffffffffffffffffffffffffffffffffffff16815260200190815260200160002060008473ffffffffffffffffffffffffffffffffffffffff1673ffffffffffffffffffffffffffffffffffffffff168152602001908152602001600020819055508173ffffffffffffffffffffffffffffffffffffffff168373ffffffffffffffffffffffffffffffffffffffff167f8c5be1e5ebec7d5bd14f71427d1e84f3dd0314c0f7b2291e5b200ac8c7c3b92583604051610e599190611d53565b60405180910390a3505050565b6000610e7284846108d4565b90507fffffffffffffffffffffffffffffffffffffffffffffffffffffffffffffffff8114610eec5781811015610ede576040517f08c379a0000000000000000000000000000000000000000000000000000000008152600401610ed590612671565b60405180910390fd5b610eeb8484848403610c9d565b5b50505050565b600073ffffffffffffffffffffffffffffffffffffffff168373ffffffffffffffffffffffffffffffffffffffff1603610f61576040517f08c379a0000000000000000000000000000000000000000000000000000000008152600401610f5890612703565b60405180910390fd5b600073ffffffffffffffffffffffffffffffffffffffff168273ffffffffffffffffffffffffffffffffffffffff1603610fd0576040517f08c379a0000000000000000000000000000000000000000000000000000000008152600401610fc790612795565b60405180910390fd5b610fdb8383836119fe565b60008060008573ffffffffffffffffffffffffffffffffffffffff1673ffffffffffffffffffffffffffffffffffffffff16815260200190815260200160002054905081811015611061576040517f08c379a000000000000000000000000000000000000000000000000000000000815260040161105890612827565b60405180910390fd5b8181036000808673ffffffffffffffffffffffffffffffffffffffff1673ffffffffffffffffffffffffffffffffffffffff16815260200190815260200160002081905550816000808573ffffffffffffffffffffffffffffffffffffffff1673ffffffffffffffffffffffffffffffffffffffff168152602001908152602001600020600082825401925050819055508273ffffffffffffffffffffffffffffffffffffffff168473ffffffffffffffffffffffffffffffffffffffff167fddf252ad1be2c89b69c2b068fc378daa952ba7f163c4a11628f55a4df523b3ef8460405161114f9190611d53565b60405180910390a3611162848484611a03565b50505050565b600080600960003373ffffffffffffffffffffffffffffffffffffffff1673ffffffffffffffffffffffffffffffffffffffff1681526020019081526020016000205490506000805b600883815481106111c5576111c46123d4565b5b9060005260206000209060020201600101805490508110156112ef576000600884815481106111f7576111f66123d4565b5b9060005260206000209060020201600101828154811061121a576112196123d4565b5b90600052602060002090600402016040518060800160405290816000820160009054906101000a900473ffffffffffffffffffffffffffffffffffffffff1673ffffffffffffffffffffffffffffffffffffffff1673ffffffffffffffffffffffffffffffffffffffff1681526020016001820154815260200160028201548152602001600382015481525050905060008160200151905060006112bd83611974565b90508082866112cc91906120cc565b6112d691906120cc565b94505050506001816112e891906120cc565b90506111b1565b5060088281548110611304576113036123d4565b5b906000526020600020906002020160010160006113219190611b09565b809250505090565b600073ffffffffffffffffffffffffffffffffffffffff168273ffffffffffffffffffffffffffffffffffffffff1603611398576040517f08c379a000000000000000000000000000000000000000000000000000000000815260040161138f90612893565b60405180910390fd5b6113a4600083836119fe565b80600260008282546113b691906120cc565b92505081905550806000808473ffffffffffffffffffffffffffffffffffffffff1673ffffffffffffffffffffffffffffffffffffffff168152602001908152602001600020600082825401925050819055508173ffffffffffffffffffffffffffffffffffffffff16600073ffffffffffffffffffffffffffffffffffffffff167fddf252ad1be2c89b69c2b068fc378daa952ba7f163c4a11628f55a4df523b3ef836040516114679190611d53565b60405180910390a361147b60008383611a03565b5050565b611487610c95565b73ffffffffffffffffffffffffffffffffffffffff166114a5610641565b73ffffffffffffffffffffffffffffffffffffffff16146114fb576040517f08c379a00000000000000000000000000000000000000000000000000000000081526004016114f2906128ff565b60405180910390fd5b565b6000600560009054906101000a900473ffffffffffffffffffffffffffffffffffffffff16905081600560006101000a81548173ffffffffffffffffffffffffffffffffffffffff021916908373ffffffffffffffffffffffffffffffffffffffff1602179055508173ffffffffffffffffffffffffffffffffffffffff168173ffffffffffffffffffffffffffffffffffffffff167f8be0079c531659141344cd1fd0a4f28419497f9722a3daafe3b4186f6b6457e060405160405180910390a35050565b60008111611606576040517f08c379a00000000000000000000000000000000000000000000000000000000081526004016115fd9061296b565b60405180910390fd5b6000600960003373ffffffffffffffffffffffffffffffffffffffff1673ffffffffffffffffffffffffffffffffffffffff1681526020019081526020016000205490506000429050600082036116635761166033611a08565b91505b60088281548110611677576116766123d4565b5b906000526020600020906002020160010160405180608001604052803373ffffffffffffffffffffffffffffffffffffffff1681526020018581526020018381526020016000815250908060018154018082558091505060019003906000526020600020906004020160009091909190915060008201518160000160006101000a81548173ffffffffffffffffffffffffffffffffffffffff021916908373ffffffffffffffffffffffffffffffffffffffff16021790555060208201518160010155604082015181600201556060820151816003015550503373ffffffffffffffffffffffffffffffffffffffff167fb4caaf29adda3eefee3ad552a8e85058589bf834c7466cae4ee58787f70589ed84848460405161179a9392919061298b565b60405180910390a2505050565b600073ffffffffffffffffffffffffffffffffffffffff168273ffffffffffffffffffffffffffffffffffffffff1603611816576040517f08c379a000000000000000000000000000000000000000000000000000000000815260040161180d90612a34565b60405180910390fd5b611822826000836119fe565b60008060008473ffffffffffffffffffffffffffffffffffffffff1673ffffffffffffffffffffffffffffffffffffffff168152602001908152602001600020549050818110156118a8576040517f08c379a000000000000000000000000000000000000000000000000000000000815260040161189f90612ac6565b60405180910390fd5b8181036000808573ffffffffffffffffffffffffffffffffffffffff1673ffffffffffffffffffffffffffffffffffffffff1681526020019081526020016000208190555081600260008282540392505081905550600073ffffffffffffffffffffffffffffffffffffffff168373ffffffffffffffffffffffffffffffffffffffff167fddf252ad1be2c89b69c2b068fc378daa952ba7f163c4a11628f55a4df523b3ef8460405161195b9190611d53565b60405180910390a361196f83600084611a03565b505050565b6000808260400151905060006301e1338060075461199291906120cc565b90506000620151806201517f84846119aa9190612ae6565b6119b491906120cc565b6119be9190612b49565b9050600064087f91cd0062a98ac78388602001516119dc9190612b7a565b6119e69190612b7a565b6119f09190612b49565b905080945050505050919050565b505050565b505050565b600060086001816001815401808255809150500390600052602060002090505060006001600880549050611a3c9190612ae6565b90508260088281548110611a5357611a526123d4565b5b906000526020600020906002020160000160006101000a81548173ffffffffffffffffffffffffffffffffffffffff021916908373ffffffffffffffffffffffffffffffffffffffff16021790555080600960008573ffffffffffffffffffffffffffffffffffffffff1673ffffffffffffffffffffffffffffffffffffffff1681526020019081526020016000208190555080915050919050565b604051806040016040528060008152602001606081525090565b5080546000825560040290600052602060002090810190611b2a9190611b2d565b50565b5b80821115611b7f57600080820160006101000a81549073ffffffffffffffffffffffffffffffffffffffff021916905560018201600090556002820160009055600382016000905550600401611b2e565b5090565b600081519050919050565b600082825260208201905092915050565b60005b83811015611bbd578082015181840152602081019050611ba2565b60008484015250505050565b6000601f19601f8301169050919050565b6000611be582611b83565b611bef8185611b8e565b9350611bff818560208601611b9f565b611c0881611bc9565b840191505092915050565b60006020820190508181036000830152611c2d8184611bda565b905092915050565b600080fd5b600073ffffffffffffffffffffffffffffffffffffffff82169050919050565b6000611c6582611c3a565b9050919050565b611c7581611c5a565b8114611c8057600080fd5b50565b600081359050611c9281611c6c565b92915050565b6000819050919050565b611cab81611c98565b8114611cb657600080fd5b50565b600081359050611cc881611ca2565b92915050565b60008060408385031215611ce557611ce4611c35565b5b6000611cf385828601611c83565b9250506020611d0485828601611cb9565b9150509250929050565b60008115159050919050565b611d2381611d0e565b82525050565b6000602082019050611d3e6000830184611d1a565b92915050565b611d4d81611c98565b82525050565b6000602082019050611d686000830184611d44565b92915050565b600080600060608486031215611d8757611d86611c35565b5b6000611d9586828701611c83565b9350506020611da686828701611c83565b9250506040611db786828701611cb9565b9150509250925092565b600060ff82169050919050565b611dd781611dc1565b82525050565b6000602082019050611df26000830184611dce565b92915050565b600060208284031215611e0e57611e0d611c35565b5b6000611e1c84828501611cb9565b91505092915050565b600060208284031215611e3b57611e3a611c35565b5b6000611e4984828501611c83565b91505092915050565b611e5b81611c5a565b82525050565b6000602082019050611e766000830184611e52565b92915050565b60008060408385031215611e9357611e92611c35565b5b6000611ea185828601611c83565b9250506020611eb285828601611c83565b9150509250929050565b611ec581611c98565b82525050565b600081519050919050565b600082825260208201905092915050565b6000819050602082019050919050565b611f0081611c5a565b82525050565b608082016000820151611f1c6000850182611ef7565b506020820151611f2f6020850182611ebc565b506040820151611f426040850182611ebc565b506060820151611f556060850182611ebc565b50505050565b6000611f678383611f06565b60808301905092915050565b6000602082019050919050565b6000611f8b82611ecb565b611f958185611ed6565b9350611fa083611ee7565b8060005b83811015611fd1578151611fb88882611f5b565b9750611fc383611f73565b925050600181019050611fa4565b5085935050505092915050565b6000604083016000830151611ff66000860182611ebc565b506020830151848203602086015261200e8282611f80565b9150508091505092915050565b600060208201905081810360008301526120358184611fde565b905092915050565b7f4e487b7100000000000000000000000000000000000000000000000000000000600052602260045260246000fd5b6000600282049050600182168061208457607f821691505b6020821081036120975761209661203d565b5b50919050565b7f4e487b7100000000000000000000000000000000000000000000000000000000600052601160045260246000fd5b60006120d782611c98565b91506120e283611c98565b92508282019050808211156120fa576120f961209d565b5b92915050565b7f5769746864726177696e67206973206e6f7420616c6c6f776564207965740000600082015250565b6000612136601e83611b8e565b915061214182612100565b602082019050919050565b6000602082019050818103600083015261216581612129565b9050919050565b7f5374616b652073746172742064617465206d75737420626520696e207468652060008201527f6675747572650000000000000000000000000000000000000000000000000000602082015250565b60006121c8602683611b8e565b91506121d38261216c565b604082019050919050565b600060208201905081810360008301526121f7816121bb565b9050919050565b7f45524332303a2064656372656173656420616c6c6f77616e63652062656c6f7760008201527f207a65726f000000000000000000000000000000000000000000000000000000602082015250565b600061225a602583611b8e565b9150612265826121fe565b604082019050919050565b600060208201905081810360008301526122898161224d565b9050919050565b7f5374616b696e6720686173206e6f742073746172746564207965740000000000600082015250565b60006122c6601b83611b8e565b91506122d182612290565b602082019050919050565b600060208201905081810360008301526122f5816122b9565b9050919050565b7f5374616b696e672068617320656e646564000000000000000000000000000000600082015250565b6000612332601183611b8e565b915061233d826122fc565b602082019050919050565b6000602082019050818103600083015261236181612325565b9050919050565b7f43616e6e6f74207374616b65206d6f7265207468616e20796f75206f776e0000600082015250565b600061239e601e83611b8e565b91506123a982612368565b602082019050919050565b600060208201905081810360008301526123cd81612391565b9050919050565b7f4e487b7100000000000000000000000000000000000000000000000000000000600052603260045260246000fd5b7f4e6f207374616b657320666f756e6420666f722074686973207374616b657200600082015250565b6000612439601f83611b8e565b915061244482612403565b602082019050919050565b600060208201905081810360008301526124688161242c565b9050919050565b7f4f776e61626c653a206e6577206f776e657220697320746865207a65726f206160008201527f6464726573730000000000000000000000000000000000000000000000000000602082015250565b60006124cb602683611b8e565b91506124d68261246f565b604082019050919050565b600060208201905081810360008301526124fa816124be565b9050919050565b7f45524332303a20617070726f76652066726f6d20746865207a65726f2061646460008201527f7265737300000000000000000000000000000000000000000000000000000000602082015250565b600061255d602483611b8e565b915061256882612501565b604082019050919050565b6000602082019050818103600083015261258c81612550565b9050919050565b7f45524332303a20617070726f766520746f20746865207a65726f20616464726560008201527f7373000000000000000000000000000000000000000000000000000000000000602082015250565b60006125ef602283611b8e565b91506125fa82612593565b604082019050919050565b6000602082019050818103600083015261261e816125e2565b9050919050565b7f45524332303a20696e73756666696369656e7420616c6c6f77616e6365000000600082015250565b600061265b601d83611b8e565b915061266682612625565b602082019050919050565b6000602082019050818103600083015261268a8161264e565b9050919050565b7f45524332303a207472616e736665722066726f6d20746865207a65726f20616460008201527f6472657373000000000000000000000000000000000000000000000000000000602082015250565b60006126ed602583611b8e565b91506126f882612691565b604082019050919050565b6000602082019050818103600083015261271c816126e0565b9050919050565b7f45524332303a207472616e7366657220746f20746865207a65726f206164647260008201527f6573730000000000000000000000000000000000000000000000000000000000602082015250565b600061277f602383611b8e565b915061278a82612723565b604082019050919050565b600060208201905081810360008301526127ae81612772565b9050919050565b7f45524332303a207472616e7366657220616d6f756e742065786365656473206260008201527f616c616e63650000000000000000000000000000000000000000000000000000602082015250565b6000612811602683611b8e565b915061281c826127b5565b604082019050919050565b6000602082019050818103600083015261284081612804565b9050919050565b7f45524332303a206d696e7420746f20746865207a65726f206164647265737300600082015250565b600061287d601f83611b8e565b915061288882612847565b602082019050919050565b600060208201905081810360008301526128ac81612870565b9050919050565b7f4f776e61626c653a2063616c6c6572206973206e6f7420746865206f776e6572600082015250565b60006128e9602083611b8e565b91506128f4826128b3565b602082019050919050565b60006020820190508181036000830152612918816128dc565b9050919050565b7f43616e6e6f74207374616b65206e6f7468696e67000000000000000000000000600082015250565b6000612955601483611b8e565b91506129608261291f565b602082019050919050565b6000602082019050818103600083015261298481612948565b9050919050565b60006060820190506129a06000830186611d44565b6129ad6020830185611d44565b6129ba6040830184611d44565b949350505050565b7f45524332303a206275726e2066726f6d20746865207a65726f2061646472657360008201527f7300000000000000000000000000000000000000000000000000000000000000602082015250565b6000612a1e602183611b8e565b9150612a29826129c2565b604082019050919050565b60006020820190508181036000830152612a4d81612a11565b9050919050565b7f45524332303a206275726e20616d6f756e7420657863656564732062616c616e60008201527f6365000000000000000000000000000000000000000000000000000000000000602082015250565b6000612ab0602283611b8e565b9150612abb82612a54565b604082019050919050565b60006020820190508181036000830152612adf81612aa3565b9050919050565b6000612af182611c98565b9150612afc83611c98565b9250828203905081811115612b1457612b1361209d565b5b92915050565b7f4e487b7100000000000000000000000000000000000000000000000000000000600052601260045260246000fd5b6000612b5482611c98565b9150612b5f83611c98565b925082612b6f57612b6e612b1a565b5b828204905092915050565b6000612b8582611c98565b9150612b9083611c98565b9250828202612b9e81611c98565b91508282048414831517612bb557612bb461209d565b5b509291505056fea2646970667358221220658badea2236f44e589608900376bf56f9e40960e4ab14632019400996d2a63564736f6c63430008130033",
  "immutableReferences": {},
  "source": "// SPDX-License-Identifier: MIT\r\npragma solidity ^0.8.19;\r\n\r\nimport \"@openzeppelin/contracts/token/ERC20/ERC20.sol\";\r\nimport \"@openzeppelin/contracts/access/Ownable.sol\";\r\n\r\ncontract DevToken is ERC20, Ownable {\r\n\r\n    uint256 public initialSupply = 100000000;\r\n\r\n    constructor() ERC20(\"DevToken\", \"DVTK\") {\r\n        _mint(msg.sender, initialSupply * 10 ** decimals());\r\n        stakeholders.push();\r\n    }\r\n\r\n    struct StakingSummary {\r\n        uint256 total_amount;\r\n        Stake[] stakes;\r\n    }\r\n\r\n    struct Stake {\r\n        address user;\r\n        uint256 amount;\r\n        uint256 since;\r\n        uint256 claimable;\r\n    }\r\n\r\n    struct Stakeholder {\r\n        address user;\r\n        Stake[] address_stakes;\r\n    }\r\n\r\n    uint256 public stakeStartDate = 0;\r\n    Stakeholder[] internal stakeholders;\r\n\r\n    mapping(address => uint256) internal stakes;\r\n\r\n    event Staked(address indexed user, uint256 amount, uint256 index, uint256 timestamp);\r\n\r\n    function setStakeStartDate(uint256 _timestamp) public onlyOwner {\r\n        require(block.timestamp < _timestamp, \"Stake start date must be in the future\");\r\n        stakeStartDate = _timestamp;\r\n    }\r\n\r\n    function _addStakeholder(address staker) internal returns (uint256){\r\n        stakeholders.push();\r\n        uint256 userIndex = stakeholders.length - 1;\r\n        stakeholders[userIndex].user = staker;\r\n        stakes[staker] = userIndex;\r\n        return userIndex;\r\n    }\r\n\r\n\r\n    function _stake(uint256 _amount) internal {\r\n        require(_amount > 0, \"Cannot stake nothing\");\r\n\r\n        uint256 index = stakes[msg.sender];\r\n        uint256 timestamp = block.timestamp;\r\n        if (index == 0) {\r\n            index = _addStakeholder(msg.sender);\r\n        }\r\n\r\n        stakeholders[index].address_stakes.push(Stake(msg.sender, _amount, timestamp, 0));\r\n        emit Staked(msg.sender, _amount, index, timestamp);\r\n    }\r\n\r\n    function stake(uint256 _amount) public {\r\n        require(stakeStartDate > 0, \"Staking has not started yet\");\r\n        require(stakeStartDate < block.timestamp, \"Staking has not started yet\");\r\n        require(block.timestamp < (stakeStartDate + 365 days), \"Staking has ended\");\r\n        require(_amount <= balanceOf(msg.sender), \"Cannot stake more than you own\");\r\n\r\n        _stake(_amount);\r\n        _burn(msg.sender, _amount);\r\n    }\r\n\r\n    function hasStake(address _staker) public view returns (StakingSummary memory){\r\n        uint256 totalStakeAmount;\r\n        require(stakeholders[stakes[_staker]].address_stakes.length > 0, \"No stakes found for this staker\");\r\n\r\n        StakingSummary memory summary = StakingSummary(0, stakeholders[stakes[_staker]].address_stakes);\r\n        for (uint256 s = 0; s < summary.stakes.length; s += 1) {\r\n            uint256 availableReward = calculateStakeReward(summary.stakes[s]);\r\n            summary.stakes[s].claimable = availableReward;\r\n            totalStakeAmount = totalStakeAmount + summary.stakes[s].amount;\r\n        }\r\n        summary.total_amount = totalStakeAmount;\r\n        return summary;\r\n    }\r\n\r\n    function withdrawStakes() public {\r\n        require(stakeStartDate + (365 days) < block.timestamp, \"Withdrawing is not allowed yet\");\r\n        uint256 amount_to_mint = _withdrawStakes();\r\n        _mint(msg.sender, amount_to_mint);\r\n    }\r\n\r\n    function _withdrawStakes() internal returns (uint256){\r\n        uint256 user_index = stakes[msg.sender];\r\n        uint256 totalTokens = 0;\r\n        for (uint256 index = 0; index < stakeholders[user_index].address_stakes.length; index += 1) {\r\n            Stake memory current_stake = stakeholders[user_index].address_stakes[index];\r\n            uint256 amount = current_stake.amount;\r\n            uint256 reward = calculateStakeReward(current_stake);\r\n            totalTokens = totalTokens + amount + reward;\r\n        }\r\n\r\n        delete stakeholders[user_index].address_stakes;\r\n        return totalTokens;\r\n    }\r\n\r\n    function calculateStakeReward(Stake memory _current_stake) internal view returns (uint256) {\r\n        uint256 startDate = _current_stake.since;\r\n        uint256 endDate = stakeStartDate + 365 days;\r\n        uint256 daysStaked = (endDate - startDate + 86399) / 86400;\r\n        uint256 reward = (_current_stake.amount * daysStaked * 11111111) / (365 * 10 ** 8);\r\n        return reward;\r\n    }\r\n\r\n}",
  "sourcePath": "C:\\Users\\user\\codcontractFAK\\dapp\\contracts\\DevToken.sol",
  "compiler": {
    "name": "solc",
    "version": "0.8.19+commit.7dd6d404.Emscripten.clang"
  },
  "schemaVersion": "3.4.13",
  "updatedAt": "2023-03-20T13:54:07.265Z",
  "networkType": "ethereum",
  "devdoc": {
    "events": {
      "Approval(address,address,uint256)": {
        "details": "Emitted when the allowance of a `spender` for an `owner` is set by a call to {approve}. `value` is the new allowance."
      },
      "Transfer(address,address,uint256)": {
        "details": "Emitted when `value` tokens are moved from one account (`from`) to another (`to`). Note that `value` may be zero."
      }
    },
    "kind": "dev",
    "methods": {
      "allowance(address,address)": {
        "details": "See {IERC20-allowance}."
      },
      "approve(address,uint256)": {
        "details": "See {IERC20-approve}. NOTE: If `amount` is the maximum `uint256`, the allowance is not updated on `transferFrom`. This is semantically equivalent to an infinite approval. Requirements: - `spender` cannot be the zero address."
      },
      "balanceOf(address)": {
        "details": "See {IERC20-balanceOf}."
      },
      "decimals()": {
        "details": "Returns the number of decimals used to get its user representation. For example, if `decimals` equals `2`, a balance of `505` tokens should be displayed to a user as `5.05` (`505 / 10 ** 2`). Tokens usually opt for a value of 18, imitating the relationship between Ether and Wei. This is the value {ERC20} uses, unless this function is overridden; NOTE: This information is only used for _display_ purposes: it in no way affects any of the arithmetic of the contract, including {IERC20-balanceOf} and {IERC20-transfer}."
      },
      "decreaseAllowance(address,uint256)": {
        "details": "Atomically decreases the allowance granted to `spender` by the caller. This is an alternative to {approve} that can be used as a mitigation for problems described in {IERC20-approve}. Emits an {Approval} event indicating the updated allowance. Requirements: - `spender` cannot be the zero address. - `spender` must have allowance for the caller of at least `subtractedValue`."
      },
      "increaseAllowance(address,uint256)": {
        "details": "Atomically increases the allowance granted to `spender` by the caller. This is an alternative to {approve} that can be used as a mitigation for problems described in {IERC20-approve}. Emits an {Approval} event indicating the updated allowance. Requirements: - `spender` cannot be the zero address."
      },
      "name()": {
        "details": "Returns the name of the token."
      },
      "owner()": {
        "details": "Returns the address of the current owner."
      },
      "renounceOwnership()": {
        "details": "Leaves the contract without owner. It will not be possible to call `onlyOwner` functions anymore. Can only be called by the current owner. NOTE: Renouncing ownership will leave the contract without an owner, thereby removing any functionality that is only available to the owner."
      },
      "symbol()": {
        "details": "Returns the symbol of the token, usually a shorter version of the name."
      },
      "totalSupply()": {
        "details": "See {IERC20-totalSupply}."
      },
      "transfer(address,uint256)": {
        "details": "See {IERC20-transfer}. Requirements: - `to` cannot be the zero address. - the caller must have a balance of at least `amount`."
      },
      "transferFrom(address,address,uint256)": {
        "details": "See {IERC20-transferFrom}. Emits an {Approval} event indicating the updated allowance. This is not required by the EIP. See the note at the beginning of {ERC20}. NOTE: Does not update the allowance if the current allowance is the maximum `uint256`. Requirements: - `from` and `to` cannot be the zero address. - `from` must have a balance of at least `amount`. - the caller must have allowance for ``from``'s tokens of at least `amount`."
      },
      "transferOwnership(address)": {
        "details": "Transfers ownership of the contract to a new account (`newOwner`). Can only be called by the current owner."
      }
    },
    "version": 1
  },
  "userdoc": {
    "kind": "user",
    "methods": {},
    "version": 1
  }
}