{
  "contractName": "SimpleCrowdsale",
  "abi": [
    {
      "inputs": [
        {
          "internalType": "uint256",
          "name": "rate",
          "type": "uint256"
        },
        {
          "internalType": "address payable",
          "name": "wallet",
          "type": "address"
        },
        {
          "internalType": "address",
          "name": "token",
          "type": "address"
        }
      ],
      "stateMutability": "nonpayable",
      "type": "constructor"
    },
    {
      "anonymous": false,
      "inputs": [],
      "name": "CrowdsalePaused",
      "type": "event"
    },
    {
      "anonymous": false,
      "inputs": [],
      "name": "CrowdsaleUnpaused",
      "type": "event"
    },
    {
      "anonymous": false,
      "inputs": [
        {
          "indexed": true,
          "internalType": "address",
          "name": "previousOwner",
          "type": "address"
        },
        {
          "indexed": true,
          "internalType": "address",
          "name": "newOwner",
          "type": "address"
        }
      ],
      "name": "OwnershipTransferred",
      "type": "event"
    },
    {
      "anonymous": false,
      "inputs": [
        {
          "indexed": false,
          "internalType": "address",
          "name": "account",
          "type": "address"
        }
      ],
      "name": "Paused",
      "type": "event"
    },
    {
      "anonymous": false,
      "inputs": [
        {
          "indexed": true,
          "internalType": "address",
          "name": "purchaser",
          "type": "address"
        },
        {
          "indexed": true,
          "internalType": "address",
          "name": "beneficiary",
          "type": "address"
        },
        {
          "indexed": false,
          "internalType": "uint256",
          "name": "value",
          "type": "uint256"
        },
        {
          "indexed": false,
          "internalType": "uint256",
          "name": "amount",
          "type": "uint256"
        }
      ],
      "name": "TokensPurchased",
      "type": "event"
    },
    {
      "anonymous": false,
      "inputs": [
        {
          "indexed": false,
          "internalType": "address",
          "name": "account",
          "type": "address"
        }
      ],
      "name": "Unpaused",
      "type": "event"
    },
    {
      "anonymous": false,
      "inputs": [
        {
          "indexed": true,
          "internalType": "address",
          "name": "owner",
          "type": "address"
        },
        {
          "indexed": false,
          "internalType": "uint256",
          "name": "amount",
          "type": "uint256"
        }
      ],
      "name": "UnsoldTokensWithdrawn",
      "type": "event"
    },
    {
      "inputs": [],
      "name": "_rate",
      "outputs": [
        {
          "internalType": "uint256",
          "name": "",
          "type": "uint256"
        }
      ],
      "stateMutability": "view",
      "type": "function"
    },
    {
      "inputs": [],
      "name": "_token",
      "outputs": [
        {
          "internalType": "contract IERC20",
          "name": "",
          "type": "address"
        }
      ],
      "stateMutability": "view",
      "type": "function"
    },
    {
      "inputs": [],
      "name": "_wallet",
      "outputs": [
        {
          "internalType": "address payable",
          "name": "",
          "type": "address"
        }
      ],
      "stateMutability": "view",
      "type": "function"
    },
    {
      "inputs": [],
      "name": "_weiRaised",
      "outputs": [
        {
          "internalType": "uint256",
          "name": "",
          "type": "uint256"
        }
      ],
      "stateMutability": "view",
      "type": "function"
    },
    {
      "inputs": [
        {
          "internalType": "address",
          "name": "beneficiary",
          "type": "address"
        }
      ],
      "name": "buyTokens",
      "outputs": [],
      "stateMutability": "payable",
      "type": "function"
    },
    {
      "inputs": [],
      "name": "owner",
      "outputs": [
        {
          "internalType": "address",
          "name": "",
          "type": "address"
        }
      ],
      "stateMutability": "view",
      "type": "function"
    },
    {
      "inputs": [],
      "name": "paused",
      "outputs": [
        {
          "internalType": "bool",
          "name": "",
          "type": "bool"
        }
      ],
      "stateMutability": "view",
      "type": "function"
    },
    {
      "inputs": [],
      "name": "renounceOwnership",
      "outputs": [],
      "stateMutability": "nonpayable",
      "type": "function"
    },
    {
      "inputs": [
        {
          "internalType": "address",
          "name": "newOwner",
          "type": "address"
        }
      ],
      "name": "transferOwnership",
      "outputs": [],
      "stateMutability": "nonpayable",
      "type": "function"
    },
    {
      "stateMutability": "payable",
      "type": "receive"
    },
    {
      "inputs": [],
      "name": "pause",
      "outputs": [],
      "stateMutability": "nonpayable",
      "type": "function"
    },
    {
      "inputs": [],
      "name": "unpause",
      "outputs": [],
      "stateMutability": "nonpayable",
      "type": "function"
    },
    {
      "inputs": [],
      "name": "withdrawUnsoldTokens",
      "outputs": [],
      "stateMutability": "nonpayable",
      "type": "function"
    }
  ],
  "bytecode": "0x60806040523480156200001157600080fd5b5060405162001e3838038062001e388339818101604052810190620000379190620003f4565b82828260016000819055506000831162000088576040517f08c379a00000000000000000000000000000000000000000000000000000000081526004016200007f90620004b1565b60405180910390fd5b600073ffffffffffffffffffffffffffffffffffffffff168273ffffffffffffffffffffffffffffffffffffffff1603620000fa576040517f08c379a0000000000000000000000000000000000000000000000000000000008152600401620000f19062000549565b60405180910390fd5b600073ffffffffffffffffffffffffffffffffffffffff168173ffffffffffffffffffffffffffffffffffffffff16036200016c576040517f08c379a00000000000000000000000000000000000000000000000000000000081526004016200016390620005e1565b60405180910390fd5b8260038190555081600260006101000a81548173ffffffffffffffffffffffffffffffffffffffff021916908373ffffffffffffffffffffffffffffffffffffffff16021790555080600160006101000a81548173ffffffffffffffffffffffffffffffffffffffff021916908373ffffffffffffffffffffffffffffffffffffffff1602179055505050506000600560006101000a81548160ff02191690831515021790555062000233620002276200023c60201b60201c565b6200024460201b60201c565b50505062000603565b600033905090565b6000600560019054906101000a900473ffffffffffffffffffffffffffffffffffffffff16905081600560016101000a81548173ffffffffffffffffffffffffffffffffffffffff021916908373ffffffffffffffffffffffffffffffffffffffff1602179055508173ffffffffffffffffffffffffffffffffffffffff168173ffffffffffffffffffffffffffffffffffffffff167f8be0079c531659141344cd1fd0a4f28419497f9722a3daafe3b4186f6b6457e060405160405180910390a35050565b600080fd5b6000819050919050565b62000324816200030f565b81146200033057600080fd5b50565b600081519050620003448162000319565b92915050565b600073ffffffffffffffffffffffffffffffffffffffff82169050919050565b600062000377826200034a565b9050919050565b62000389816200036a565b81146200039557600080fd5b50565b600081519050620003a9816200037e565b92915050565b6000620003bc826200034a565b9050919050565b620003ce81620003af565b8114620003da57600080fd5b50565b600081519050620003ee81620003c3565b92915050565b60008060006060848603121562000410576200040f6200030a565b5b6000620004208682870162000333565b9350506020620004338682870162000398565b92505060406200044686828701620003dd565b9150509250925092565b600082825260208201905092915050565b7f43726f776473616c653a20726174652069732030000000000000000000000000600082015250565b60006200049960148362000450565b9150620004a68262000461565b602082019050919050565b60006020820190508181036000830152620004cc816200048a565b9050919050565b7f43726f776473616c653a2077616c6c657420697320746865207a65726f20616460008201527f6472657373000000000000000000000000000000000000000000000000000000602082015250565b60006200053160258362000450565b91506200053e82620004d3565b604082019050919050565b60006020820190508181036000830152620005648162000522565b9050919050565b7f43726f776473616c653a20746f6b656e20697320746865207a65726f2061646460008201527f7265737300000000000000000000000000000000000000000000000000000000602082015250565b6000620005c960248362000450565b9150620005d6826200056b565b604082019050919050565b60006020820190508181036000830152620005fc81620005ba565b9050919050565b61182580620006136000396000f3fe6080604052600436106100ab5760003560e01c80638da5cb5b116100645780638da5cb5b1461018d57806394a5aa8d146101b8578063c8bdbfb6146101e3578063ec8ac4d8146101fa578063ecd0c0c314610216578063f2fde38b14610241576100c2565b80633f4ba83a146100c75780635c975abb146100de578063610757e414610109578063715018a61461013457806383bebced1461014b5780638456cb5914610176576100c2565b366100c2576100c06100bb61026a565b610272565b005b600080fd5b3480156100d357600080fd5b506100dc61034b565b005b3480156100ea57600080fd5b506100f3610389565b6040516101009190610e3b565b60405180910390f35b34801561011557600080fd5b5061011e6103a0565b60405161012b9190610e97565b60405180910390f35b34801561014057600080fd5b506101496103c6565b005b34801561015757600080fd5b506101606103da565b60405161016d9190610ecb565b60405180910390f35b34801561018257600080fd5b5061018b6103e0565b005b34801561019957600080fd5b506101a261041e565b6040516101af9190610f07565b60405180910390f35b3480156101c457600080fd5b506101cd610448565b6040516101da9190610ecb565b60405180910390f35b3480156101ef57600080fd5b506101f861044e565b005b610214600480360381019061020f9190610f53565b610272565b005b34801561022257600080fd5b5061022b6105b2565b6040516102389190610fdf565b60405180910390f35b34801561024d57600080fd5b5061026860048036038101906102639190610f53565b6105d8565b005b600033905090565b61027a61065b565b600034905061028982826106aa565b6000610294826106c0565b9050816004546102a49190611029565b6004819055506102b483826106d7565b8273ffffffffffffffffffffffffffffffffffffffff166102d361026a565b73ffffffffffffffffffffffffffffffffffffffff167f6faf93231a456e552dbc9961f58d9713ee4f2e69d15f1975b050ef0911053a7b848460405161031a92919061105d565b60405180910390a361032c83836106e5565b6103346106e9565b61033e8383610754565b5050610348610758565b50565b610353610762565b61035b6107e0565b7f63653f557f2cd1e972081f09f44384474c28d52b5e2a8924ddb5f116f93be61160405160405180910390a1565b6000600560009054906101000a900460ff16905090565b600260009054906101000a900473ffffffffffffffffffffffffffffffffffffffff1681565b6103ce610762565b6103d86000610843565b565b60035481565b6103e8610762565b6103f0610909565b7fb33cb8f69f12e81b174294f8a058439ea10a334ff07dcd7959f1f5c5bf7a7d3260405160405180910390a1565b6000600560019054906101000a900473ffffffffffffffffffffffffffffffffffffffff16905090565b60045481565b610456610762565b61045e61065b565b6000600160009054906101000a900473ffffffffffffffffffffffffffffffffffffffff1673ffffffffffffffffffffffffffffffffffffffff166370a08231306040518263ffffffff1660e01b81526004016104bb9190610f07565b602060405180830381865afa1580156104d8573d6000803e3d6000fd5b505050506040513d601f19601f820116820180604052508101906104fc91906110b2565b905060008111610541576040517f08c379a00000000000000000000000000000000000000000000000000000000081526004016105389061113c565b60405180910390fd5b61055261054c61041e565b8261096c565b61055a61041e565b73ffffffffffffffffffffffffffffffffffffffff167f328a7cca57e89d3b52f56190ef4e06d91c987e3ef2640db3be95d65f818e2d128260405161059f9190610ecb565b60405180910390a2506105b0610758565b565b600160009054906101000a900473ffffffffffffffffffffffffffffffffffffffff1681565b6105e0610762565b600073ffffffffffffffffffffffffffffffffffffffff168173ffffffffffffffffffffffffffffffffffffffff160361064f576040517f08c379a0000000000000000000000000000000000000000000000000000000008152600401610646906111ce565b60405180910390fd5b61065881610843565b50565b6002600054036106a0576040517f08c379a00000000000000000000000000000000000000000000000000000000081526004016106979061123a565b60405180910390fd5b6002600081905550565b6106b26109bd565b6106bc8282610a07565b5050565b6000600354826106d0919061125a565b9050919050565b6106e1828261096c565b5050565b5050565b600260009054906101000a900473ffffffffffffffffffffffffffffffffffffffff1673ffffffffffffffffffffffffffffffffffffffff166108fc349081150290604051600060405180830381858888f19350505050158015610751573d6000803e3d6000fd5b50565b5050565b6001600081905550565b61076a61026a565b73ffffffffffffffffffffffffffffffffffffffff1661078861041e565b73ffffffffffffffffffffffffffffffffffffffff16146107de576040517f08c379a00000000000000000000000000000000000000000000000000000000081526004016107d5906112e8565b60405180910390fd5b565b6107e8610abd565b6000600560006101000a81548160ff0219169083151502179055507f5db9ee0a495bf2e6ff9c91a7834c1ba4fdd244a5e8aa4e537bd38aeae4b073aa61082c61026a565b6040516108399190610f07565b60405180910390a1565b6000600560019054906101000a900473ffffffffffffffffffffffffffffffffffffffff16905081600560016101000a81548173ffffffffffffffffffffffffffffffffffffffff021916908373ffffffffffffffffffffffffffffffffffffffff1602179055508173ffffffffffffffffffffffffffffffffffffffff168173ffffffffffffffffffffffffffffffffffffffff167f8be0079c531659141344cd1fd0a4f28419497f9722a3daafe3b4186f6b6457e060405160405180910390a35050565b6109116109bd565b6001600560006101000a81548160ff0219169083151502179055507f62e78cea01bee320cd4e420270b5ea74000d11b0c9f74754ebdbfc544b05a25861095561026a565b6040516109629190610f07565b60405180910390a1565b6109b98282600160009054906101000a900473ffffffffffffffffffffffffffffffffffffffff1673ffffffffffffffffffffffffffffffffffffffff16610b069092919063ffffffff16565b5050565b6109c5610389565b15610a05576040517f08c379a00000000000000000000000000000000000000000000000000000000081526004016109fc90611354565b60405180910390fd5b565b600073ffffffffffffffffffffffffffffffffffffffff168273ffffffffffffffffffffffffffffffffffffffff1603610a76576040517f08c379a0000000000000000000000000000000000000000000000000000000008152600401610a6d906113e6565b60405180910390fd5b60008103610ab9576040517f08c379a0000000000000000000000000000000000000000000000000000000008152600401610ab090611452565b60405180910390fd5b5050565b610ac5610389565b610b04576040517f08c379a0000000000000000000000000000000000000000000000000000000008152600401610afb906114be565b60405180910390fd5b565b610b878363a9059cbb60e01b8484604051602401610b259291906114de565b604051602081830303815290604052907bffffffffffffffffffffffffffffffffffffffffffffffffffffffff19166020820180517bffffffffffffffffffffffffffffffffffffffffffffffffffffffff8381831617835250505050610b8c565b505050565b6000610bee826040518060400160405280602081526020017f5361666545524332303a206c6f772d6c6576656c2063616c6c206661696c65648152508573ffffffffffffffffffffffffffffffffffffffff16610c539092919063ffffffff16565b9050600081511115610c4e5780806020019051810190610c0e9190611533565b610c4d576040517f08c379a0000000000000000000000000000000000000000000000000000000008152600401610c44906115d2565b60405180910390fd5b5b505050565b6060610c628484600085610c6b565b90509392505050565b606082471015610cb0576040517f08c379a0000000000000000000000000000000000000000000000000000000008152600401610ca790611664565b60405180910390fd5b6000808673ffffffffffffffffffffffffffffffffffffffff168587604051610cd991906116f5565b60006040518083038185875af1925050503d8060008114610d16576040519150601f19603f3d011682016040523d82523d6000602084013e610d1b565b606091505b5091509150610d2c87838387610d38565b92505050949350505050565b60608315610d9a576000835103610d9257610d5285610dad565b610d91576040517f08c379a0000000000000000000000000000000000000000000000000000000008152600401610d8890611758565b60405180910390fd5b5b829050610da5565b610da48383610dd0565b5b949350505050565b6000808273ffffffffffffffffffffffffffffffffffffffff163b119050919050565b600082511115610de35781518083602001fd5b806040517f08c379a0000000000000000000000000000000000000000000000000000000008152600401610e1791906117cd565b60405180910390fd5b60008115159050919050565b610e3581610e20565b82525050565b6000602082019050610e506000830184610e2c565b92915050565b600073ffffffffffffffffffffffffffffffffffffffff82169050919050565b6000610e8182610e56565b9050919050565b610e9181610e76565b82525050565b6000602082019050610eac6000830184610e88565b92915050565b6000819050919050565b610ec581610eb2565b82525050565b6000602082019050610ee06000830184610ebc565b92915050565b6000610ef182610e56565b9050919050565b610f0181610ee6565b82525050565b6000602082019050610f1c6000830184610ef8565b92915050565b600080fd5b610f3081610ee6565b8114610f3b57600080fd5b50565b600081359050610f4d81610f27565b92915050565b600060208284031215610f6957610f68610f22565b5b6000610f7784828501610f3e565b91505092915050565b6000819050919050565b6000610fa5610fa0610f9b84610e56565b610f80565b610e56565b9050919050565b6000610fb782610f8a565b9050919050565b6000610fc982610fac565b9050919050565b610fd981610fbe565b82525050565b6000602082019050610ff46000830184610fd0565b92915050565b7f4e487b7100000000000000000000000000000000000000000000000000000000600052601160045260246000fd5b600061103482610eb2565b915061103f83610eb2565b925082820190508082111561105757611056610ffa565b5b92915050565b60006040820190506110726000830185610ebc565b61107f6020830184610ebc565b9392505050565b61108f81610eb2565b811461109a57600080fd5b50565b6000815190506110ac81611086565b92915050565b6000602082840312156110c8576110c7610f22565b5b60006110d68482850161109d565b91505092915050565b600082825260208201905092915050565b7f4e6f20756e736f6c6420746f6b656e73206c6566740000000000000000000000600082015250565b60006111266015836110df565b9150611131826110f0565b602082019050919050565b6000602082019050818103600083015261115581611119565b9050919050565b7f4f776e61626c653a206e6577206f776e657220697320746865207a65726f206160008201527f6464726573730000000000000000000000000000000000000000000000000000602082015250565b60006111b86026836110df565b91506111c38261115c565b604082019050919050565b600060208201905081810360008301526111e7816111ab565b9050919050565b7f5265656e7472616e637947756172643a207265656e7472616e742063616c6c00600082015250565b6000611224601f836110df565b915061122f826111ee565b602082019050919050565b6000602082019050818103600083015261125381611217565b9050919050565b600061126582610eb2565b915061127083610eb2565b925082820261127e81610eb2565b9150828204841483151761129557611294610ffa565b5b5092915050565b7f4f776e61626c653a2063616c6c6572206973206e6f7420746865206f776e6572600082015250565b60006112d26020836110df565b91506112dd8261129c565b602082019050919050565b60006020820190508181036000830152611301816112c5565b9050919050565b7f5061757361626c653a2070617573656400000000000000000000000000000000600082015250565b600061133e6010836110df565b915061134982611308565b602082019050919050565b6000602082019050818103600083015261136d81611331565b9050919050565b7f43726f776473616c653a2062656e656669636961727920697320746865207a6560008201527f726f206164647265737300000000000000000000000000000000000000000000602082015250565b60006113d0602a836110df565b91506113db82611374565b604082019050919050565b600060208201905081810360008301526113ff816113c3565b9050919050565b7f43726f776473616c653a20776569416d6f756e74206973203000000000000000600082015250565b600061143c6019836110df565b915061144782611406565b602082019050919050565b6000602082019050818103600083015261146b8161142f565b9050919050565b7f5061757361626c653a206e6f7420706175736564000000000000000000000000600082015250565b60006114a86014836110df565b91506114b382611472565b602082019050919050565b600060208201905081810360008301526114d78161149b565b9050919050565b60006040820190506114f36000830185610ef8565b6115006020830184610ebc565b9392505050565b61151081610e20565b811461151b57600080fd5b50565b60008151905061152d81611507565b92915050565b60006020828403121561154957611548610f22565b5b60006115578482850161151e565b91505092915050565b7f5361666545524332303a204552433230206f7065726174696f6e20646964206e60008201527f6f74207375636365656400000000000000000000000000000000000000000000602082015250565b60006115bc602a836110df565b91506115c782611560565b604082019050919050565b600060208201905081810360008301526115eb816115af565b9050919050565b7f416464726573733a20696e73756666696369656e742062616c616e636520666f60008201527f722063616c6c0000000000000000000000000000000000000000000000000000602082015250565b600061164e6026836110df565b9150611659826115f2565b604082019050919050565b6000602082019050818103600083015261167d81611641565b9050919050565b600081519050919050565b600081905092915050565b60005b838110156116b857808201518184015260208101905061169d565b60008484015250505050565b60006116cf82611684565b6116d9818561168f565b93506116e981856020860161169a565b80840191505092915050565b600061170182846116c4565b915081905092915050565b7f416464726573733a2063616c6c20746f206e6f6e2d636f6e7472616374000000600082015250565b6000611742601d836110df565b915061174d8261170c565b602082019050919050565b6000602082019050818103600083015261177181611735565b9050919050565b600081519050919050565b6000601f19601f8301169050919050565b600061179f82611778565b6117a981856110df565b93506117b981856020860161169a565b6117c281611783565b840191505092915050565b600060208201905081810360008301526117e78184611794565b90509291505056fea2646970667358221220a27e70e610f42c024925fc25f8be401ee8ddf2c66b1989c20a8315af0dd7a6f964736f6c63430008130033",
  "immutableReferences": {},
  "source": "// SPDX-License-Identifier: MIT\r\npragma solidity ^0.8.0;\r\n\r\nimport \"./CrowdSaleUpdatedToSol8.sol\";\r\nimport \"@openzeppelin/contracts/security/Pausable.sol\";\r\nimport \"@openzeppelin/contracts/access/Ownable.sol\";\r\n\r\ncontract SimpleCrowdsale is Crowdsale, Pausable, Ownable {\r\n    // Define events\r\n    event CrowdsalePaused();\r\n    event CrowdsaleUnpaused();\r\n    event UnsoldTokensWithdrawn(address indexed owner, uint256 amount);\r\n\r\n    constructor(uint256 rate, address payable wallet, address token)\r\n    Crowdsale(rate, wallet, IERC20(token))\r\n    {\r\n        // No additional logic required, as the imported Crowdsale contract handles the basic functionality\r\n    }\r\n\r\n    // Override the _preValidatePurchase function to check if the crowdsale is paused or not\r\n    function _preValidatePurchase(address beneficiary, uint256 weiAmount) internal view virtual override whenNotPaused {\r\n        super._preValidatePurchase(beneficiary, weiAmount);\r\n    }\r\n\r\n    // Function to pause the crowdsale\r\n    function pause() external onlyOwner {\r\n        _pause();\r\n        emit CrowdsalePaused();\r\n    }\r\n\r\n    // Function to unpause the crowdsale\r\n    function unpause() external onlyOwner {\r\n        _unpause();\r\n        emit CrowdsaleUnpaused();\r\n    }\r\n\r\n    // Function to withdraw unsold tokens by the contract owner\r\n    function withdrawUnsoldTokens() external onlyOwner nonReentrant {\r\n        uint256 unsoldTokens = _token.balanceOf(address(this));\r\n        require(unsoldTokens > 0, \"No unsold tokens left\");\r\n        _deliverTokens(owner(), unsoldTokens);\r\n        emit UnsoldTokensWithdrawn(owner(), unsoldTokens);\r\n    }\r\n}",
  "sourcePath": "C:\\Users\\omgad\\Desktop\\WebstormProjects\\dapp\\contracts\\CrowdSale.sol",
  "compiler": {
    "name": "solc",
    "version": "0.8.19+commit.7dd6d404.Emscripten.clang"
  },
  "schemaVersion": "3.4.13",
  "updatedAt": "2023-03-19T20:08:11.224Z",
  "devdoc": {
    "events": {
      "Paused(address)": {
        "details": "Emitted when the pause is triggered by `account`."
      },
      "TokensPurchased(address,address,uint256,uint256)": {
        "params": {
          "amount": "amount of tokens purchased",
          "beneficiary": "who got the tokens",
          "purchaser": "who paid for the tokens",
          "value": "weis paid for purchase"
        }
      },
      "Unpaused(address)": {
        "details": "Emitted when the pause is lifted by `account`."
      }
    },
    "kind": "dev",
    "methods": {
      "buyTokens(address)": {
        "details": "low level token purchase ***DO NOT OVERRIDE*** This function has a non-reentrancy guard, so it shouldn't be called by another `nonReentrant` function.",
        "params": {
          "beneficiary": "Recipient of the token purchase"
        }
      },
      "owner()": {
        "details": "Returns the address of the current owner."
      },
      "paused()": {
        "details": "Returns true if the contract is paused, and false otherwise."
      },
      "renounceOwnership()": {
        "details": "Leaves the contract without owner. It will not be possible to call `onlyOwner` functions anymore. Can only be called by the current owner. NOTE: Renouncing ownership will leave the contract without an owner, thereby removing any functionality that is only available to the owner."
      },
      "transferOwnership(address)": {
        "details": "Transfers ownership of the contract to a new account (`newOwner`). Can only be called by the current owner."
      }
    },
    "version": 1
  },
  "userdoc": {
    "events": {
      "TokensPurchased(address,address,uint256,uint256)": {
        "notice": "Event for token purchase logging"
      }
    },
    "kind": "user",
    "methods": {},
    "version": 1
  }
}